:020000040000FA
:100000000C9463000C948B000C948B000C948B006C
:100010000C948B000C948B000C948B000C948B0034
:100020000C948B000C948B000C948B000C948B0024
:100030000C948B000C948B000C948B000C948B0014
:100040000C9476050C948B000C948B000C948B0014
:100050000C948B000C948B000C948B000C948B00F4
:100060000C94C0050C948B000000000024002700B5
:100070002A0000000000250028002B0000000000DE
:1000800023002600290004040404040404040202DA
:100090000202020203030303030301020408102007
:1000A0004080010204081020010204081020000012
:1000B0000008000201000003040700000000000027
:1000C0000000DF063B0C11241FBECFEFD8E0DEBFDF
:1000D000CDBF24E0A0E2B2E001C01D92AD35B20771
:1000E000E1F712E0A0E0B1E0EEE8FDE102C005902A
:1000F0000D92A032B107D9F710E0C2E6D0E004C0FB
:100100002197FE010E94C20CC136D107C9F70E9497
:10011000E0070C94BA0E0C940000833081F028F4B0
:10012000813099F08230A9F008958730A9F08830A5
:10013000C9F08430B1F4809180008F7D03C080913C
:1001400080008F7780938000089584B58F7784BD79
:10015000089584B58F7DFBCF8091B0008F77809319
:10016000B00008958091B0008F7DF9CFCF93DF93D9
:10017000282F30E0F901E255FF4F8491F901E6564E
:10018000FF4FD491F901EA57FF4FC491CC23A1F05E
:1001900081110E948D00EC2FF0E0EE0FFF1FE4585C
:1001A000FF4FA591B491EC91ED2381E090E009F42B
:1001B00080E0DF91CF91089580E090E0FACF1F9327
:1001C000CF93DF93282F30E0F901E255FF4F849160
:1001D000F901E656FF4FD491F901EA57FF4FC49158
:1001E000CC23A9F0162F81110E948D00EC2FF0E096
:1001F000EE0FFF1FEE58FF4FA591B4918FB7F89403
:10020000EC91111108C0D095DE23DC938FBFDF91F4
:10021000CF911F910895DE2BF8CF3FB7F8948091CE
:10022000F2029091F302A091F402B091F50226B58A
:10023000A89B05C02F3F19F00196A11DB11D3FBF1E
:10024000BA2FA92F982F8827BC01CD01620F711DED
:10025000811D911D42E0660F771F881F991F4A95E7
:10026000D1F708958F929F92AF92BF92CF92DF9273
:10027000EF92FF924B015C010E940D016B017C012A
:100280000E940D016C197D098E099F09683E73401B
:1002900081059105A8F321E0821A9108A108B1080F
:1002A00088EEC80E83E0D81EE11CF11C8114910475
:1002B000A104B10429F7FF90EF90DF90CF90BF9099
:1002C000AF909F908F90089508950895AF92BF9238
:1002D000CF92DF92EF92FF920F931F93CF93DF9312
:1002E0006C017B018B01040F151FEB015E01AE1841
:1002F000BF08C017D10759F06991D601ED91FC9163
:100300000190F081E02DC6010995892B79F7C5018F
:10031000DF91CF911F910F91FF90EF90DF90CF90E1
:10032000BF90AF900895FC01448155816081718137
:1003300082E093E00C946601089520916102260FFB
:100340003327331F21323105ECF42091AA02FC013E
:1003500090E080E0243069F082E00895A09161028D
:100360002191AC014F5B5D4FA40FB52FB11D2C93B4
:100370000196861798F380916102680F609361027D
:1003800080E0089581E008951092AA0281E08093B0
:10039000A9021092840261E082E10E94DF0061E024
:1003A00083E10E94DF00E9EBF0E080818E7F8083B3
:1003B00080818D7F808388E48093B80085E480937A
:1003C000BC000895CF93DF9391E09093400288237F
:1003D000B9F0C091B800D091BA008091BC008A7B7E
:1003E0008093BC0060E082E10E94DF0060E083E176
:1003F0000E94DF000E94C401D093BA00C093B800ED
:10040000DF91CF9108950895E091D9028091D802AB
:10041000E81730F4F0E0E05EFD4F808190E0089551
:100420008FEF9FEF08959091D9028091D8022FEF1E
:100430003FEF981748F4E92FF0E0E05EFD4F208190
:1004400030E09F5F9093D902C90108958091D8024E
:100450009091D902891B990B0895CF92DF92EF9268
:10046000FF920F931F93CF93DF937C01CB018A01FF
:100470002091B002222389F0EB016B01C40ED51E3E
:10048000CC15DD0569F06991D701ED91FC910190E2
:10049000F081E02DC7010995F3CF642F0E949D01E3
:1004A000C801DF91CF911F910F91FF90EF90DF90E6
:1004B000CF900895CF93DF931F92CDB7DEB76983B6
:1004C0002091B0022223F9F02091D602203258F078
:1004D00021E030E0FC013383228390E080E00F9044
:1004E000DF91CF9108958091D702E82FF0E0EF548B
:1004F000FD4F998190838F5F8093D7028093D602BE
:1005000081E090E0ECCF61E0CE0101960E949D0178
:10051000F7CFCF92DF92EF92FF920F931F93CF937B
:10052000DF93FC01C48121E02093B002C093D1028B
:100530001092D7021092D6028385682B86EF92E044
:100540000E945A02D091D602D13208F092C00E9485
:100550000D016B017C018091AA02811165C082E0CE
:100560008093AA0281E08093A9028FEF8093A80272
:100570001092A702D093A602A1EBB2E0E6E8F2E067
:1005800080E0D81385C01092850280918502CC0F3F
:10059000C82BC093850280918402813009F07CC011
:1005A000109284020E940D016B017C0180918502F2
:1005B0008093BB008091AC029091AD02A091AE02FD
:1005C000B091AF02892B8A2B8B2B99F00E940D01E1
:1005D0000091AC021091AD022091AE023091AF02B9
:1005E0006C197D098E099F09061717072807390717
:1005F000E0F18091BC0083FDD9CF85EC8093BC00F5
:100600000E940D016B017C018091AA02823009F4E5
:1006100045C08091A8028F3F61F18091A80280328D
:1006200041F18091A80225C08091AC029091AD0269
:10063000A091AE02B091AF02892B8A2B8B2B09F4CB
:100640008ACF0E940D010091AC021091AD02209161
:10065000AE023091AF026C197D098E099F09061711
:1006600017072807390708F076CF8091AB020E9460
:10067000E2011092D7021092D6021092B002DF91DE
:10068000CF911F910F91FF90EF90DF90CF90089541
:100690009D9191938F5F75CF85EEB0CF8091AC0225
:1006A0009091AD02A091AE02B091AF02892B8A2B3E
:1006B0008B2B09F4A9CF0E940D010091AC0210917F
:1006C000AD022091AE023091AF026C197D098E0906
:1006D0009F09061717072807390708F095CFC5CFD8
:1006E00090E080E008951F93CF93DF93EC011E818B
:1006F000111119C088810E94B600892B51F489819B
:10070000811107C081E08983812FDF91CF911F91F3
:10071000089588810E94B600892BB1F319811123B5
:1007200099F31982F1CF198210E0EECFCF93DF93C6
:10073000DC016C9311961C92119770E0FB01E65658
:10074000FF4F94916A577F4FFB0124912223C9F0F8
:1007500030E0220F331FF901E859FF4F45915491C2
:10076000F901EE58FF4FC591D4912FB7F894FA01D3
:100770003081892F809583238083E8819E2B988305
:100780002FBF8FB7F8944091EE025091EF02609125
:10079000F0027091F1028FBF12964D935D936D93AD
:1007A0007C931597DF91CF9108950F931F93CF936B
:1007B0008C01C62F0E9489026C2F6460C8010E94C0
:1007C00089026C2F6B7FC8010E94890283EC90E044
:1007D0000197F1F7CF911F910F9108950F931F93F8
:1007E000CF93DF938C01D62FC42F607F642B0E94A0
:1007F000D50380E1D89FB00111246C2BC801DF9193
:10080000CF911F910F910C94D503CF93DF93CDB768
:10081000DEB728970FB6F894DEBF0FBECDBF98E0C5
:10082000E7E0F1E0DE01119601900D929A95E1F773
:1008300090910A03981708F48FEF90E0880F991FA2
:1008400021E030E02C0F3D1F820F931FFC016081DF
:10085000606840E082E093E028960FB6F894DEBF2F
:100860000FBECDBFDF91CF910C94EE0341E00E940B
:10087000EE0381E090E0089540E061E082E093E0E3
:100880000E94EE038BE39FE10197F1F708958F92A9
:100890009F92AF92BF920F931F93CF93DF93CDB7E9
:1008A000DEB7A1970FB6F894DEBF0FBECDBF19A279
:1008B000423008F44AE08E010F5D1F4F842E912CC8
:1008C000B12CA12CA50194010E94A00CE62FB90126
:1008D000CA01EA3044F5E05DD801EE938D01232B87
:1008E000242B252B79F790E080E0109769F0FD012B
:1008F00001900020E9F73197AF014A1B5B0BBD0166
:1009000082E093E00E946601A1960FB6F894DEBFE4
:100910000FBECDBFDF91CF911F910F91BF90AF90D0
:100920009F908F900895E95CD7CFCF92DF92EF929E
:10093000FF926C01990FEE08FF08F7FE16C041E028
:100940006DE282E093E00E94EE0366277727CB01F9
:100950006C197D098E099F094AE00E94470401969F
:10096000FF90EF90DF90CF9008954AE0C701B60165
:10097000FF90EF90DF90CF900C944704FC01019022
:100980000020E9F73197AF01481B590BBC0182E009
:1009900093E00C9466010F931F93CF93DF93EC01C8
:1009A00088819981009759F02A813B812617370762
:1009B00030F081E0DF91CF911F910F9108958B016D
:1009C0006F5F7F4F0E94ED0D009759F099838883E8
:1009D0001B830A832C813D81232B59F7FC01108254
:1009E000E8CF80E0E7CFCF93DF93EC018881998156
:1009F000009711F00E94640D198218821D821C82DA
:100A00001B821A82DF91CF910895EF92FF920F938C
:100A10001F93CF93DF93EC017B01198218821B8215
:100A20001A821D821C82FB0101900020E9F7319798
:100A30008F01061B170BB8010E94CB04811109C05E
:100A4000CE01DF91CF911F910F91FF90EF900C9409
:100A5000F3041D830C83B70188819981DF91CF91C5
:100A60001F910F91FF90EF900C94B30EFC018081C9
:100A70009181009711F00C94640D089585ED809399
:100A8000BC008091AC029091AD02A091AE02B091F9
:100A9000AF020796A11DB11D23E0B695A7959795C6
:100AA00087952A95D1F72091BC0024FD03C01092B0
:100AB000AA0208954091AC025091AD026091AE023D
:100AC0007091AF02452B462B472B69F30097A10588
:100AD000B10541F02AE22A95F1F700C00197A1097A
:100AE000B109E1CF8091AB020C94E2011F920F9209
:100AF0000FB60F9211242F933F938F939F93AF9331
:100B0000BF938091EE029091EF02A091F002B0911C
:100B1000F1023091ED0223E0230F2D3758F50196B5
:100B2000A11DB11D2093ED028093EE029093EF0280
:100B3000A093F002B093F1028091F2029091F3023F
:100B4000A091F402B091F5020196A11DB11D809310
:100B5000F2029093F302A093F402B093F502BF91D6
:100B6000AF919F918F913F912F910F900FBE0F905A
:100B70001F90189526E8230F0296A11DB11DD2CF14
:100B80001F920F920FB60F9211242F933F934F9302
:100B90005F936F937F938F939F93AF93BF93EF93E5
:100BA000FF938091B900887F803609F44AC0F0F540
:100BB000883209F4A7C018F5803109F49BC0B8F455
:100BC000882309F4F9C0883009F494C0FF91EF91AB
:100BD000BF91AF919F918F917F916F915F914F9155
:100BE0003F912F910F900FBE0F901F901895883155
:100BF00009F488C0803251F78093A80214C0803471
:100C000009F49DC040F48033B9F38833F9F680933A
:100C1000A80285ECB0C0803509F485C0883509F498
:100C200096C0883499F60E943E05D0CF883909F4E1
:100C30008CC038F5883729F050F4883611F08037A9
:100C400029F683E08093AA021092830257C0883865
:100C500009F47BC0803919F0803809F0B7CF809152
:100C60008302803208F071C0E091830281E08E0F30
:100C7000809383028091BB00F0E0ED59FD4F8083AB
:100C80003DC0803B39F0E0F4803A09F479C0883AFD
:100C900009F09CCF84E08093AA0210926202109225
:100CA0006102E091D402F091D50209958091610230
:100CB00081110FC081E0809361021092410209C04E
:100CC000803C09F4A6CF883C09F4A3CF883B09F007
:100CD0007DCFE091620281E08E0F80936202F0E0AE
:100CE000EF5BFD4F80818093BB0090916202809109
:100CF000610229C0809185028093BB0085EC8093BE
:100D0000BC0064CF9091A7028091A602981758F575
:100D1000E091A70281E08E0F8093A702F0E0EA57EE
:100D2000FD4F8081E9CFE091A70281E08E0F809393
:100D3000A7028091BB00F0E0EA57FD4F80839091BD
:100D4000A7028091A6029817C8F285E8D8CFE09153
:100D5000A70281E08E0F8093A7028091BB00F0E094
:100D6000EA57FD4F80838091A90281115CCF81E019
:100D70008093840284EA8093BC001092AA0226CF5A
:100D800085EC8093BC001092AA028091830280328D
:100D900030F4E0918302F0E0ED59FD4F1082609154
:100DA000830270E0E091D202F091D30283E692E0F8
:100DB0000995109283020ACF1092A80234CF6F9245
:100DC0007F928F929F92AF92BF92CF92DF92EF92DB
:100DD000FF920F931F93CF93DF931092F90210921B
:100DE000F80288EE93E0A0E0B0E08093FA029093DE
:100DF000FB02A093FC02B093FD0285E391E0909387
:100E0000F7028093F60262E082E594E00E94960386
:100E100063E08BE494E00E94960364E084E494E051
:100E20000E949603C7E1EFEFF3E0DF018C2F1D92E4
:100E30008A95E9F76FE471E0CF010E9405058DE026
:100E400090E0909306048093050468ED71E080E1E2
:100E500094E00E940505E6E1F4E0DF018C2F1D928D
:100E60008A95E9F76EE571E0CF010E9405058CE0F7
:100E700090E090931D0480931C0468ED71E087E27C
:100E800094E00E940505EDE2F4E0DF011D92CA95B1
:100E9000E9F76AE671E0CF010E9405058BE090E07A
:100EA000909334048093330468ED71E08EE394E012
:100EB0000E940505109205031092040387E491E057
:100EC000909303038093020387E28093060380E1FB
:100ED00080930B0382E080930C0310920D03D0E00B
:100EE000C0E068ED71E0CE01825F9C4F0E94050575
:100EF00068ED71E0CE01815E9C4F0E94050567960A
:100F0000C63ED10571F768ED71E086EF93E00E946F
:100F100005051092FE03F12CE12CD0E0C0E08E011B
:100F200001501C4FCE5FDC4F8AE0682E712CB3E07D
:100F3000EB16F10480F56E01ECE0CE0ED11CD80169
:100F4000AD90BC901197A114B10449F014968D9006
:100F50009C90B401C6010E94CB04811104C0C6015B
:100F60000E94F30407C0998A888AB5018C859D8503
:100F70000E94B30EF801868197819B8B8A8B1C8A15
:100F80007A8E698E7C8E6B8EFFEFEF1AFF0A095EF8
:100F90001F4F6796CCCF82E090E09093F50380934B
:100FA000F403DF91CF911F910F91FF90EF90DF90AD
:100FB000CF90BF90AF909F908F907F906F9008954B
:100FC000789484B5826084BD84B5816084BD85B524
:100FD000826085BD85B5816085BD80916E00816030
:100FE00080936E00109281008091810082608093D6
:100FF00081008091810081608093810080918000D8
:101000008160809380008091B10084608093B10002
:101010008091B00081608093B00080917A008460FC
:1010200080937A0080917A00826080937A00809128
:101030007A00816080937A0080917A008068809342
:101040007A001092C1001092D9021092D802109228
:10105000D7021092D6020E94C40184E691E09093D8
:10106000D5028093D40285E691E09093D3028093D9
:10107000D2021092070380910C03823018F098E09E
:101080009093070380930A0362E370E080E090E0AE
:101090000E94320160910D0382E093E00E94890278
:1010A00068EE73E080E090E00E94320160E382E04D
:1010B00093E00E94D503CBE4D6E4CE010197F1F78B
:1010C00060E382E093E00E94D5032197F1F760E3AB
:1010D00082E093E00E94D50383E592E00197F1F767
:1010E00060E282E093E00E94D503609107036062B2
:1010F00040E082E093E00E94EE0384E080930803E6
:1011000040E06CE082E093E00E94EE030E943C0429
:1011100082E08093090340E066E082E093E00E9471
:10112000EE0340E062E082E093E00E94EE038BE396
:101130009FE10197F1F788E080930D0360E082E082
:1011400093E00E94890280E00E94050485E791E017
:101150000E94BE0481E00E940504C1E1D0E081EA62
:1011600091E00E94BE0464E670E080E090E00E949E
:1011700032012197A1F70E943C04CEE0D3E0F12C8C
:10118000E12C8091F4039091F5038E159F050CF0EE
:1011900080C144244394C7E14AE0A42EB12C5CE30F
:1011A000552E60E0662E60E0762ECC24C39472E06B
:1011B000E72EF12C82E594E00E9473038093EC0209
:1011C000809152040E94B600892B09F0A2C180913F
:1011D000580481119EC12FB7F8948091EE0290912E
:1011E000EF02A091F002B091F1022FBF40915404A0
:1011F000509155046091560470915704841B950BCF
:10120000A60BB70B883E9340A105B105B0F02FB7F0
:10121000F8948091EE029091EF02A091F002B091CB
:10122000F1022FBF8093540490935504A093560469
:10123000B0935704C092580401E00093EB028BE492
:1012400094E00E947303D82E8093EA0284E494E031
:101250000E947303D82F8093E9021091EC028091D1
:101260000001882309F477C110920001002309F4DA
:1012700063C08091E6029091E7021092FE038130F4
:10128000910509F08AC11092E7021092E60280915E
:10129000E4029091E502FC01EE0FFF1FE15EFE4FBC
:1012A0002081318102970CF473C1529EC001539E7C
:1012B000900D11249093E3028093E2024091E202A8
:1012C0005091E3026091E0027091E1028091DC02B2
:1012D0009091DD02C89FF001C99FF00D1124EE5FCF
:1012E000FC4FA091DE02B091DF02AA0FBB1FA15FED
:1012F000BE4F0D90BC91A02DB68BA58B0196C89FBB
:10130000D001C99FB00D1124AE5FBC4F6D937C938B
:10131000548F438F328F218F1092DF021092DE02A2
:101320001092E5021092E4021092E1021092E002A3
:101330001092DB021092DA020E943C048091E602D5
:101340009091E702009709F42EC1019709F013C1AB
:10135000DD2009F48FC18091DA029091DB028230A6
:10136000910509F082C11092DB021092DA02DD23AE
:1013700021F0F092DB02E092DA028091FE0381110B
:1013800030C045E0842E912C0E943C0464E670E05D
:1013900080E090E00E94320180E00E94050483E931
:1013A00091E00E94BE0481E00E9405042091DC02CD
:1013B0003091DD02C29FC001C39F900D1124825F56
:1013C0009C4F0E9493016CE271E080E090E00E94EB
:1013D000320181E0881A9108B9F6C092FE030E949A
:1013E0003C048091DA029091DB028130910509F48E
:1013F0006CC18230910509F4CEC1892B09F0BBC0C4
:101400001123C9F08091DE029091DF022091DC026D
:101410003091DD02873091050CF43CC11092DF025F
:101420001092DE02C29FF001C39FF00D1124EE5F07
:10143000FC4F168A158A80E00E94050483EA91E039
:101440000E94BE0481E00E9405048091DC0290911C
:10145000DD02C89FF001C99FF00D1124EE5FFC4F23
:1014600085899689892B09F42DC184EB91E00E942E
:10147000BE048091DC029091DD02C89FF001C99FFB
:10148000F00D1124EE5FFC4F858996890E9495042A
:1014900072C08E819F819927FC01E656FF4F2491EF
:1014A0008A579F4FFC018491882399F090E0880F20
:1014B000991FFC01E859FF4FA591B491FC01EE582A
:1014C000FF4F859194918FB7F894EC91E22BEC93B8
:1014D0008FBF80E00E940504CE010E94930181E04D
:1014E0000E94050485E891E00E94BE0464E670E075
:1014F00080E090E00E9432010E943C0464E670E0CB
:1015000080E090E00E943201FFEFEF1AFF0A679639
:1015100038CE809152040E94B600892BA9F42FB7CF
:10152000F8948091EE029091EF02A091F002B091B8
:10153000F1022FBF8093540490935504A093560456
:10154000B093570400E079CE80915804882339F392
:1015500010925804E4CF9091E8028D2D802B812BBE
:1015600011F4DD2329F0911106C0C092E8027ECE6D
:1015700091111092E80264E670E080E090E00E9431
:1015800032016114710409F415CE0E94000012CEDC
:101590003093E3022093E20291CE01969093E7020A
:1015A0008093E602C9CEDD2009F451C08091DC02AF
:1015B0009091DD022091F4033091F5038217930797
:1015C00009F040C01092DD021092DC02DD2341F0F0
:1015D0008091F4039091F5039093DD028093DC02F7
:1015E0008090DC029090DD02112351F0C89DF00143
:1015F000C99DF00D1124EE5FFC4F84898425848BF6
:1016000080E00E940504C89DC001C99D900D112471
:10161000825F9C4F0E94930181E00E9405048091AB
:10162000DC029091DD02C89FF001C99FF00D1124EA
:10163000EE5FFC4F84898823A9F08BE891E00E943B
:10164000BE0499CF01969093DD028093DC02DD23E6
:1016500039F28091DC029091DD02009709F4B8CF55
:101660000197BACF88E891E0EACF01969093DB0228
:101670008093DA02DD2309F480CE8091DA02909122
:10168000DB02009709F475CE01979093DB028093FB
:10169000DA0273CE01969093DF028093DE02C29F3E
:1016A000D001C39FB00D1124AE5FBC4F880F991FAE
:1016B000FC01E15FFE4F8081918156969C938E9351
:1016C0005597B9CE8EEB91E0BACF1123C1F080913E
:1016D000E4029091E5022091DC023091DD02883035
:1016E0009105DCF11092E5021092E402C29FF00134
:1016F000C39FF00D1124EE5FFC4FB28EA18E80E0EF
:101700000E94050488EC91E00E94BE048091DC02F6
:101710009091DD02C89FF001C99FF00D1124EE5F8A
:10172000FC4F818D928D8A30910511F04E9769F5AD
:1017300081E00E94050489ED91E00E94BE04809141
:10174000DC029091DD02C89FF001C99FF00D1124C9
:10175000EE5FFC4F818D928D99CE01969093E502BC
:101760008093E402C29FD001C39FB00D1124AE5FED
:10177000BC4F880F991FFC01E15EFE4F8081918173
:101780005A969C938E935997BACF81E00E94050494
:1017900087EE91E0D2CF1123F1F08091E002909199
:1017A000E102823091050CF460C01092E1021092C7
:1017B000E0028091DC029091DD020196C89FF00169
:1017C000C99FF00D1124EE5FFC4F8091E0029091D3
:1017D000E1029183808380E00E94050483EF91E021
:1017E0000E94BE0481E00E94050484E092E00E9411
:1017F000BE048091DC029091DD020196C89FF00149
:10180000C99FF00D1124EE5FFC4F80819181892BDF
:1018100021F48BE092E00E94BE048091DC02909162
:10182000DD020196C89FF001C99FF00D1124EE5F03
:10183000FC4F80819181019721F48FE092E00E941A
:10184000BE048091DC029091DD020196C89FF001F8
:10185000C99FF00D1124EE5FFC4F808191810297AA
:1018600009F089CE85E192E0EACE01969093E102FB
:101870008093E0029ECFCF93DF9386EF93E00E94A8
:101880003605C4EFD3E06797CE0141960E94360536
:10189000CE010E94360583E0CE30D807A1F78EE353
:1018A00094E00E9436058DE294E00E94360587E2BE
:1018B00094E00E94360586E194E00E94360580E1BE
:1018C00094E00E9436058FEF93E0DF91CF910C9466
:1018D00036052F923F924F925F926F927F928F9236
:1018E0009F92AF92BF92CF92DF92EF92FF920F93AF
:1018F0001F93CF93DF93CDB7DEB7CA1BDB0B0FB6B9
:10190000F894DEBF0FBECDBF09942A883988488875
:101910005F846E847D848C849B84AA84B984C8840B
:10192000DF80EE80FD800C811B81AA81B981CE0F02
:10193000D11D0FB6F894DEBF0FBECDBFED010895E7
:10194000A1E21A2EAA1BBB1BFD010DC0AA1FBB1FC3
:10195000EE1FFF1FA217B307E407F50720F0A21B35
:10196000B30BE40BF50B661F771F881F991F1A94A2
:1019700069F760957095809590959B01AC01BD01CC
:10198000CF010895EE0FFF1F0590F491E02D09940B
:101990000F931F93CF93DF938230910510F482E071
:1019A00090E0E0915B04F0915C0430E020E0B0E076
:1019B000A0E0309799F42115310509F44AC0281B9D
:1019C000390B24303105D8F58A819B816115710569
:1019D00089F1FB0193838283FE0111C04081518113
:1019E0000281138148175907E0F04817590799F405
:1019F000109761F012960C93129713961C933296DF
:101A0000CF01DF91CF911F910F91089500935B0457
:101A100010935C04F4CF2115310551F042175307A0
:101A200038F0A901DB019A01BD01DF01F801C1CF46
:101A3000EF01F9CF90935C0480935B04CDCFFE015E
:101A4000E20FF31F81939193225031093983288348
:101A5000D7CF2091590430915A04232B41F420917F
:101A600003013091040130935A04209359042091CA
:101A70000101309102012115310541F42DB73EB726
:101A80004091050150910601241B350BE09159044A
:101A9000F0915A04E217F307A0F42E1B3F0B28170E
:101AA000390778F0AC014E5F5F4F2417350748F0D7
:101AB0004E0F5F1F50935A044093590481939193A2
:101AC0009FCFF0E0E0E09CCFCF93DF930097E9F069
:101AD000FC01329713821282A0915B04B0915C04E6
:101AE000ED0130E020E01097A1F420813181820FD8
:101AF000931F2091590430915A042817390709F08F
:101B000061C0F0935A04E0935904DF91CF91089596
:101B1000EA01CE17DF07E8F54A815B819E01411596
:101B20005105B1F7E901FB83EA8349915991C40F4B
:101B3000D51FEC17FD0761F4808191810296840F17
:101B4000951FE90199838883828193819B838A838E
:101B5000F0E0E0E012968D919C9113970097B9F513
:101B60002D913C911197CD010296820F931F2091E8
:101B7000590430915A042817390739F6309751F52E
:101B800010925C0410925B04B0935A04A093590421
:101B9000BCCFD383C28340815181840F951FC81766
:101BA000D90761F44E5F5F4F88819981480F591FB3
:101BB000518340838A819B819383828321153105E0
:101BC00009F0B0CFF0935C04E0935B049ECFFD017D
:101BD000DC01C0CF13821282D7CFB0E0A0E0E3EFE8
:101BE000FDE00C946B0C8C01009751F4CB010E942A
:101BF000C80C8C01C801CDB7DEB7E0E10C94870CAE
:101C0000FC01E60FF71F9C0122503109E217F30790
:101C100008F49DC0D901CD91DC911197C617D70763
:101C200098F0C530D10530F3CE0104978617970799
:101C300008F3C61BD70B2297C193D1936D937C9366
:101C4000CF010E94640DD6CF5B01AC1ABD0A4C01D6
:101C50008C0E9D1EA0915B04B0915C04512C412C14
:101C6000F12CE12C109731F58091590490915A0490
:101C70008815990509F05CC04616570608F058C04B
:101C80008091010190910201009741F48DB79EB7B8
:101C90004091050150910601841B950BE817F90747
:101CA00008F055C0F0935A04E0935904F901718388
:101CB0006083A0CF8D919C91119712966C90129792
:101CC00013967C901397A815B90559F56C0142E05D
:101CD000C40ED11CCA14DB0420F1AC014A195B0903
:101CE000DA011296159780F06282738251834083E5
:101CF000D9016D937C93E114F10471F0D70113962F
:101D0000FC93EE93129776CF22968C0F9D1FF901CC
:101D100091838083F301EFCFF0935C04E0935B0445
:101D200069CF4816590608F42C017D01D3019ACFDA
:101D3000CB010E94C80C7C01009749F0AE01B801AC
:101D40000E94AA0EC8010E94640D870153CF10E0C3
:101D500000E050CFFB01DC0102C001900D92415028
:101D60005040D8F70895FB01DC0101900D9200204E
:101D7000E1F7089510E0C2E6D0E004C0FE010E9441
:101D8000C20C2196C336D107C9F7F894FFCF0100E2
:101D9000005D0480000000400014005400000001B9
:101DA0000002000300050008000D0015000A001ED7
:101DB00000010002000300050008000D00150000EE
:101DC0000000005A022D02700303022602130204CF
:101DD00002000000003604660170039C0143616E3E
:101DE0006120646520416375636172005065206401
:101DF00065204C696D616F005065206465206361EA
:101E00006A6100496E697469616C697A6572204C17
:101E10004344004F4B004445534154495641444FBD
:101E2000003D3D434F4E46494720504147453D3DCB
:101E300000496E74657276616C6F206972726967B1
:101E40002E00486F72612873293A20004465736C34
:101E5000696761646F0054656D706F2061746976A5
:101E600061646F20202000536567756E646F73286E
:101E700073293A20004D696E75746F2873293A20D2
:101E8000004D6F646F206465206174697661722013
:101E900020005469706F3A2000446961004E6F69F8
:0E1EA00074650046756C6C2D54696D6500000C
:107E0000112484B714BE81FFF0D085E080938100F7
:107E100082E08093C00088E18093C10086E0809377
:107E2000C20080E18093C4008EE0C9D0259A86E02C
:107E300020E33CEF91E0309385002093840096BBD3
:107E4000B09BFECF1D9AA8958150A9F7CC24DD24C4
:107E500088248394B5E0AB2EA1E19A2EF3E0BF2EE7
:107E6000A2D0813461F49FD0082FAFD0023811F036
:107E7000013811F484E001C083E08DD089C08234E0
:107E800011F484E103C0853419F485E0A6D080C0E4
:107E9000853579F488D0E82EFF2485D0082F10E0AE
:107EA000102F00270E291F29000F111F8ED06801E7
:107EB0006FC0863521F484E090D080E0DECF843638
:107EC00009F040C070D06FD0082F6DD080E0C81688
:107ED00080E7D80618F4F601B7BEE895C0E0D1E017
:107EE00062D089930C17E1F7F0E0CF16F0E7DF06D8
:107EF00018F0F601B7BEE89568D007B600FCFDCFD4
:107F0000A601A0E0B1E02C9130E011968C91119780
:107F100090E0982F8827822B932B1296FA010C0160
:107F200087BEE89511244E5F5F4FF1E0A038BF0790
:107F300051F7F601A7BEE89507B600FCFDCF97BE46
:107F4000E89526C08437B1F42ED02DD0F82E2BD052
:107F50003CD0F601EF2C8F010F5F1F4F84911BD097
:107F6000EA94F801C1F70894C11CD11CFA94CF0C13
:107F7000D11C0EC0853739F428D08EE10CD085E9AC
:107F80000AD08FE07ACF813511F488E018D01DD067
:107F900080E101D065CF982F8091C00085FFFCCF94
:107FA0009093C60008958091C00087FFFCCF809118
:107FB000C00084FD01C0A8958091C6000895E0E648
:107FC000F0E098E1908380830895EDDF803219F02E
:107FD00088E0F5DFFFCF84E1DECF1F93182FE3DFCA
:107FE0001150E9F7F2DF1F91089580E0E8DFEE27F6
:047FF000FF270994CA
:027FFE00040479
:00000001FF
