:020000040000FA
:100000000C9463000C948B000C948B000C948B006C
:100010000C948B000C948B000C948B000C948B0034
:100020000C948B000C948B000C948B000C948B0024
:100030000C948B000C948B000C948B000C948B0014
:100040000C94DB040C948B000C948B000C948B00B0
:100050000C948B000C948B000C948B000C948B00F4
:100060000C9425050C948B00000000002400270050
:100070002A0000000000250028002B0000000000DE
:1000800023002600290004040404040404040202DA
:100090000202020203030303030301020408102007
:1000A0004080010204081020010204081020000012
:1000B0000008000201000003040700000000000027
:1000C000000044069A0911241FBECFEFD8E0DEBF1E
:1000D000CDBF22E0A4E7B1E001C01D92A03FB2076E
:1000E000E1F711E0A0E0B1E0E8EEF7E102C0059031
:1000F0000D92A437B107D9F710E0C2E6D0E004C0F2
:100100002197FE010E94EF09C136D107C9F70E946D
:1001100024070C94E70B0C940000833081F028F442
:10012000813099F08230A9F008958730A9F08830A5
:10013000C9F08430B1F4809180008F7D03C080913C
:1001400080008F7780938000089584B58F7784BD79
:10015000089584B58F7DFBCF8091B0008F77809319
:10016000B00008958091B0008F7DF9CFCF93DF93D9
:10017000282F30E0F901E255FF4F8491F901E6564E
:10018000FF4FD491F901EA57FF4FC491CC23A1F05E
:1001900081110E948D00EC2FF0E0EE0FFF1FE4585C
:1001A000FF4FA591B491EC91ED2381E090E009F42B
:1001B00080E0DF91CF91089580E090E0FACF1F9327
:1001C000CF93DF93282F30E0F901E255FF4F849160
:1001D000F901E656FF4FD491F901EA57FF4FC49158
:1001E000CC23A9F0162F81110E948D00EC2FF0E096
:1001F000EE0FFF1FEE58FF4FA591B4918FB7F89403
:10020000EC91111108C0D095DE23DC938FBFDF91F4
:10021000CF911F910895DE2BF8CF3FB7F8948091CE
:100220003C0290913D02A0913E02B0913F0226B562
:10023000A89B05C02F3F19F00196A11DB11D3FBF1E
:10024000BA2FA92F982F8827BC01CD01620F711DED
:10025000811D911D42E0660F771F881F991F4A95E7
:10026000D1F708958F929F92AF92BF92CF92DF9273
:10027000EF92FF924B015C010E940D016B017C012A
:100280000E940D016C197D098E099F09683E73401B
:1002900081059105A8F321E0821A9108A108B1080F
:1002A00088EEC80E83E0D81EE11CF11C8114910475
:1002B000A104B10429F7FF90EF90DF90CF90BF9099
:1002C000AF909F908F90089508950895AF92BF9238
:1002D000CF92DF92EF92FF920F931F93CF93DF9312
:1002E0006C017B018B01040F151FEB015E01AE1841
:1002F000BF08C017D10759F06991D601ED91FC9163
:100300000190F081E02DC6010995892B79F7C5018F
:10031000DF91CF911F910F91FF90EF90DF90CF90E1
:10032000BF90AF90089508952091B501260F33270F
:10033000331F21323105ECF42091FE01FC0190E0E5
:1003400080E0243069F082E00895A091B501219108
:10035000AC014B565E4FA40FB52FB11D2C930196E7
:10036000861798F38091B501680F6093B50180E01E
:10037000089581E008951092FE0181E08093FD01CF
:100380001092D80161E082E10E94DF0061E083E128
:100390000E94DF00E9EBF0E080818E7F8083808126
:1003A0008D7F808388E48093B80085E48093BC00CF
:1003B0000895CF93DF9391E0909394018823B9F04F
:1003C000C091B800D091BA008091BC008A7B809324
:1003D000BC0060E082E10E94DF0060E083E10E94F7
:1003E000DF000E94BB01D093BA00C093B800DF9138
:1003F000CF9108950895E0912D0280912C02E81785
:1004000030F4F0E0EC58FE4F808190E008958FEFDB
:100410009FEF089590912D0280912C022FEF3FEFD6
:10042000981748F4E92FF0E0EC58FE4F208130E0B7
:100430009F5F90932D02C901089580912C029091A5
:100440002D02891B990B0895CF92DF92EF92FF92B4
:100450000F931F93CF93DF937C01CB018A012091EF
:100460000402222389F0EB016B01C40ED51ECC15CA
:10047000DD0569F06991D701ED91FC910190F08162
:10048000E02DC7010995F3CF642F0E949401C801A4
:10049000DF91CF911F910F91FF90EF90DF90CF9060
:1004A0000895CF93DF931F92CDB7DEB76983209174
:1004B00004022223F9F020912A02203258F021E090
:1004C00030E0FC013383228390E080E00F90DF91E5
:1004D000CF91089580912B02E82FF0E0EB5FFD4F64
:1004E000998190838F5F80932B0280932A0281E011
:1004F00090E0ECCF61E0CE0101960E949401F7CF2D
:10050000CF92DF92EF92FF920F931F93CF93DF93DF
:10051000FC01C48121E020930402C09325021092C3
:100520002B0210922A028385682B80E492E00E94BD
:100530005102D0912A02D13208F092C00E940D01DE
:100540006B017C018091FE01811165C082E0809386
:10055000FE0181E08093FD018FEF8093FC011092FA
:10056000FB01D093FA01A5E0B2E0EAEDF1E080E012
:10057000D81385C01092D9018091D901CC0FC82B16
:10058000C093D9018091D801813009F07CC01092CC
:10059000D8010E940D016B017C018091D9018093EB
:1005A000BB008091000290910102A0910202B091E3
:1005B0000302892B8A2B8B2B99F00E940D0100914D
:1005C00000021091010220910202309103026C1985
:1005D0007D098E099F090617170728073907E0F1DB
:1005E0008091BC0083FDD9CF85EC8093BC000E9434
:1005F0000D016B017C018091FE01823009F445C040
:100600008091FC018F3F61F18091FC01803241F1CA
:100610008091FC0125C08091000290910102A0917F
:100620000202B0910302892B8A2B8B2B09F48ACF0B
:100630000E940D010091000210910102209102021E
:10064000309103026C197D098E099F09061717075F
:100650002807390708F076CF8091FF010E94D90161
:1006600010922B0210922A0210920402DF91CF9175
:100670001F910F91FF90EF90DF90CF9008959D9183
:1006800091938F5F75CF85EEB0CF809100029091EE
:100690000102A0910202B0910302892B8A2B8B2BBD
:1006A00009F4A9CF0E940D010091000210910102EE
:1006B00020910202309103026C197D098E099F0975
:1006C000061717072807390708F095CFC5CF90E020
:1006D00080E008951F93CF93DF93EC011E811111E9
:1006E00019C088810E94B600892B51F4898181113B
:1006F00007C081E08983812FDF91CF911F910895F9
:1007000088810E94B600892BB1F31981112399F3D6
:100710001982F1CF198210E0EECFCF93DF93DC0185
:100720006C9311961C92119770E0FB01E656FF4FF7
:1007300094916A577F4FFB0124912223C9F030E046
:10074000220F331FF901E859FF4F45915491F901E8
:10075000EE58FF4FC591D4912FB7F894FA0130812C
:10076000892F809583238083E8819E2B98832FBFD8
:100770008FB7F894409138025091390260913A0253
:1007800070913B028FBF12964D935D936D937C9356
:100790001597DF91CF9108950F931F93CF938C01FD
:1007A000C62F0E9480026C2F6460C8010E948002E4
:1007B0006C2F6B7FC8010E94800283EC90E0019750
:1007C000F1F7CF911F910F9108950F931F93CF933E
:1007D000DF938C01D62FC42F607F642B0E94CC0343
:1007E00080E1D89FB00111246C2BC801DF91CF911B
:1007F0001F910F910C94CC03CF93DF93CDB7DEB74D
:1008000028970FB6F894DEBF0FBECDBF98E0E7E0A3
:10081000F1E0DE01119601900D929A95E1F7909129
:100820005402981708F48FEF90E0880F991F21E089
:1008300030E02C0F3D1F820F931FFC016081606828
:1008400040E08CE492E028960FB6F894DEBF0FBE2D
:10085000CDBFDF91CF910C94E50340E061E08CE4E3
:1008600092E00E94E5038BE39FE10197F1F7089581
:1008700041E00E94E50381E090E00895FC010190D1
:100880000020E9F73197AF01481B590BBC018CE4FC
:1008900092E00C946601FC0180819181009711F037
:1008A0000C94910A0895EF92FF920F931F93CF93A8
:1008B000DF93EC017B018A0188819981009729F0FF
:1008C0002A813B812417350788F4B8016F5F7F4F79
:1008D0000E941A0B009791F0998388831B830A83E7
:1008E0002C813D81232B11F4FC0110821D830C838C
:1008F000B701888199810E94E00B0CC088819981A1
:10090000009711F00E94910A198218821D821C82A0
:100910001B821A82CE01DF91CF911F910F91FF9020
:10092000EF900895FC0111821082138212821582C9
:100930001482FB0101900020E9F73197AF01461BBB
:10094000570B0C94530485ED8093BC0080910002FA
:1009500090910102A0910202B09103020796A11D9D
:10096000B11D23E0B695A795979587952A95D1F760
:100970002091BC0024FD03C01092FE010895409117
:100980000002509101026091020270910302452B16
:10099000462B472B69F30097A105B10541F02AE2E8
:1009A0002A95F1F700C00197A109B109E1CF809123
:1009B000FF010C94D9011F920F920FB60F921124D0
:1009C0002F933F938F939F93AF93BF938091380260
:1009D00090913902A0913A02B0913B0230913702D6
:1009E00023E0230F2D3758F50196A11DB11D20934B
:1009F00037028093380290933902A0933A02B09361
:100A00003B0280913C0290913D02A0913E02B09148
:100A10003F020196A11DB11D80933C0290933D02BF
:100A2000A0933E02B0933F02BF91AF919F918F91EF
:100A30003F912F910F900FBE0F901F90189526E8B1
:100A4000230F0296A11DB11DD2CF1F920F920FB698
:100A50000F9211242F933F934F935F936F937F9344
:100A60008F939F93AF93BF93EF93FF938091B900C0
:100A7000887F803609F44AC0F0F5883209F4A7C0AF
:100A800018F5803109F49BC0B8F4882309F4F9C043
:100A9000883009F494C0FF91EF91BF91AF919F917D
:100AA0008F917F916F915F914F913F912F910F9017
:100AB0000FBE0F901F901895883109F488C08032BE
:100AC00051F78093FC0114C0803409F49DC040F4B8
:100AD0008033B9F38833F9F68093FC0185ECB0C01C
:100AE000803509F485C0883509F496C0883499F6B4
:100AF0000E94A304D0CF883909F48CC038F5883718
:100B000029F050F4883611F0803729F683E080937D
:100B1000FE011092D70157C0883809F47BC0803994
:100B200019F0803809F0B7CF8091D701803208F0F2
:100B300071C0E091D70181E08E0F8093D701809141
:100B4000BB00F0E0E954FE4F80833DC0803B39F0AC
:100B5000E0F4803A09F479C0883A09F09CCF84E047
:100B60008093FE011092B6011092B501E091280227
:100B7000F091290209958091B50181110FC081E0A2
:100B80008093B5011092950109C0803C09F4A6CF6D
:100B9000883C09F4A3CF883B09F07DCFE091B601F2
:100BA00081E08E0F8093B601F0E0EB56FE4F80811E
:100BB0008093BB009091B6018091B50129C08091CE
:100BC000D9018093BB0085EC8093BC0064CF9091E9
:100BD000FB018091FA01981758F5E091FB0181E043
:100BE0008E0F8093FB01F0E0E652FE4F8081E9CF4B
:100BF000E091FB0181E08E0F8093FB018091BB00AF
:100C0000F0E0E652FE4F80839091FB018091FA0163
:100C10009817C8F285E8D8CFE091FB0181E08E0FEC
:100C20008093FB018091BB00F0E0E652FE4F808391
:100C30008091FD0181115CCF81E08093D80184EA2D
:100C40008093BC001092FE0126CF85EC8093BC00FF
:100C50001092FE018091D701803230F4E091D701EB
:100C6000F0E0E954FE4F10826091D70170E0E0910E
:100C70002602F091270287EB91E009951092D701A7
:100C80000ACF1092FC0134CFEF92FF920F931F9383
:100C9000CF93DF93109243021092420288EE93E0CA
:100CA000A0E0B0E08093440290934502A0934602F6
:100CB000B093470283E191E0909341028093400218
:100CC00062E085EE92E00E948D0363E08EED92E09B
:100CD0000E948D0364E087ED92E00E948D03C9E0DD
:100CE000ECEBF2E0DF018C2F1D928A95E9F76DE2C3
:100CF00071E0CF010E9492048DE090E09093C302D6
:100D00008093C202E5ECF2E0DF018C2F1D928A9500
:100D1000E9F76CE371E0CF010E9492048CE090E06F
:100D20009093CC028093CB02EEECF2E0DF011D92B7
:100D3000CA95E9F768E471E0CF010E9492048BE064
:100D400090E09093D5028093D40210924F021092BB
:100D50004E0285E291E090934D0280934C0287E22F
:100D60008093500280E18093550282E08093560286
:100D700010925702C8E5D2E0198218821B821A82AB
:100D80001D821C8250E040E064E671E0CE010E94CA
:100D900053042996B2E0C23BDB0771F71092B5020B
:100DA0001092B4021092B7021092B6021092B902D9
:100DB0001092B80250E040E064E671E084EB92E00B
:100DC0000E94530410E000E0D0E0C0E0FE01E454D3
:100DD000FD4F7F01C45BDD4F0330110540F5D701A6
:100DE0006D917C91119761157105A1F014964D914B
:100DF0005C91CE010C960E945304F7018681978185
:100E00009B8B8A8B1C8A0F5F1F4FF9E0EF0EF11C42
:100E10002996E2CF8C859D85009711F00E94910A5A
:100E20001D861C86198A188A1F861E86E6CF82E0D8
:100E300090E09093B3028093B202DF91CF911F9123
:100E40000F91FF90EF900895789484B5826084BDEF
:100E500084B5816084BD85B5826085BD85B58160BE
:100E600085BD80916E00816080936E00109281003C
:100E700080918100826080938100809181008160F7
:100E800080938100809180008160809380008091B8
:100E9000B10084608093B1008091B0008160809344
:100EA000B00080917A00846080937A0080917A000B
:100EB000826080937A0080917A00816080937A00CA
:100EC00080917A00806880937A001092C10010921D
:100ED0002D0210922C0210922B0210922A020E94D4
:100EE000BB0184E691E0909329028093280285E675
:100EF00091E09093270280932602109251028091F4
:100F00005602823018F098E0909351028093540278
:100F100062E370E080E090E00E943201609157024D
:100F20008CE492E00E94800268EE73E080E090E042
:100F30000E94320160E38CE492E00E94CC03CBE497
:100F4000D6E4CE010197F1F760E38CE492E00E94D1
:100F5000CC032197F1F760E38CE492E00E94CC038C
:100F600083E592E00197F1F760E28CE492E00E9461
:100F7000CC0360915102606240E08CE492E00E94F8
:100F8000E50384E08093520240E06CE08CE492E060
:100F90000E94E5030E942D0482E08093530240E00A
:100FA00066E08CE492E00E94E50340E062E08CE4BD
:100FB00092E00E94E5038BE39FE10197F1F788E05F
:100FC0008093570260E08CE492E00E94800280E00F
:100FD0000E94FC0383E591E00E943E0481E00E94B0
:100FE000FC03C1E1D0E041E050E063E671E08CE455
:100FF00092E00E94660164E670E080E090E00E946A
:101000003201219781F70E942D04CCE4D2E010E058
:1010100000E08091B2029091B3028017910704F52D
:10102000EE24E39419E0C0E0D0E001E08CE4C82EA7
:1010300082E0D82EB12CA12CF9E0CF0ED11C8091EA
:10104000B2029091B3028A159B050CF451C0F601CF
:10105000638581850E94DF00FFEFAF1ABF0AECCFE6
:101060008A899B899927FC01E656FF4F24918A576C
:101070009F4FFC018491882399F090E0880F991F7D
:10108000FC01E859FF4FA591B491FC01EE58FF4FC8
:10109000859194918FB7F894EC91E22BEC938FBFEC
:1010A00080E00E94FC03488959896C857D858CE429
:1010B00092E00E94660181E00E94FC0342E050E061
:1010C00065E671E08CE492E00E94660164E670E0FF
:1010D00080E090E00E9432010E942D0464E670E0FE
:1010E00080E090E00E9432010F5F1F4F299691CF60
:1010F00085EE92E00E946A03809336028091E502B9
:101100000E94B600892B09F0BDC08091EB028111CD
:10111000B9C02FB7F8948091380290913902A0910C
:101120003A02B0913B022FBF4091E7025091E80292
:101130006091E9027091EA02841B950BA60BB70B34
:10114000883B9B40A105B105B8F02FB7F89480917A
:10115000380290913902A0913A02B0913B022FBF20
:101160008093E7029093E802A093E902B093EA0229
:101170000093EB02FF24F394F09235028EED92E09F
:101180000E946A03C82E8093340287ED92E00E9489
:101190006A03D82E80933302B0903602809100010A
:1011A000882309F491C010920001FF2061F0809122
:1011B0003002909131028130910509F0A1C0109266
:1011C0003102109230020E942D04809130029091E1
:1011D0003102892B09F088C0CC2009F49CC0809191
:1011E0002E0290912F022091B2023091B302281763
:1011F000390709F08BC010922F0210922E02DD20C9
:1012000041F08091B2029091B30290932F028093AB
:101210002E02C0902E02D0902F02BB2051F01C9DB8
:10122000F0011D9DF00D1124E45BFD4F84898E2596
:10123000848B80E00E94FC031C9DF0011D9DF00D3D
:101240001124E85AFD4F44815581608171818CE4FD
:1012500092E00E94660181E00E94FC0380912E02D0
:1012600090912F02189FF001199FF00D1124E45B5B
:10127000FD4F8489882309F45AC08BE691E00E94CF
:101280003E0432C08091E5020E94B600892BA9F489
:101290002FB7F8948091380290913902A0913A02C8
:1012A000B0913B022FBF8093E7029093E802A09396
:1012B000E902B093EA02F12C5FCF8091EB02882320
:1012C00039F31092EB02E4CF909132028C2D8F29EA
:1012D0008B2911F4DD2029F0911106C00093320210
:1012E00064CF91111092320264E670E080E090E0E9
:1012F0000E943201209709F499CE0E94000096CEF8
:10130000019690933102809330025DCF01969093C5
:101310002F0280932E02DD2009F47BCF80912E02D4
:1013200090912F02009709F46CCF01976ECF88E659
:1013300091E0A5CFCF93DF9384EB92E00E944B0422
:10134000C2EBD2E02997CE010E944B0482E0C8355F
:10135000D807C1F78EEC92E00E944B0485EC92E036
:101360000E944B048CEB92E0DF91CF910C944B04E4
:101370002F923F924F925F926F927F928F929F92A5
:10138000AF92BF92CF92DF92EF92FF920F931F9393
:10139000CF93DF93CDB7DEB7CA1BDB0B0FB6F89444
:1013A000DEBF0FBECDBF09942A88398848885F8484
:1013B0006E847D848C849B84AA84B984C884DF80F5
:1013C000EE80FD800C811B81AA81B981CE0FD11DD9
:1013D0000FB6F894DEBF0FBECDBFED010895EE0F3E
:1013E000FF1F0590F491E02D09940F931F93CF9365
:1013F000DF938230910510F482E090E0E091EE02FC
:10140000F091EF0230E020E0B0E0A0E0309799F4F6
:101410002115310509F44AC0281B390B2430310548
:10142000D8F58A819B816115710589F1FB01938350
:101430008283FE0111C040815181028113814817CE
:101440005907E0F04817590799F4109761F0129680
:101450000C93129713961C933296CF01DF91CF9184
:101460001F910F9108950093EE021093EF02F4CFB5
:101470002115310551F04217530738F0A901DB015E
:101480009A01BD01DF01F801C1CFEF01F9CF9093BF
:10149000EF028093EE02CDCFFE01E20FF31F8193A6
:1014A00091932250310939832883D7CF2091EC02C0
:1014B0003091ED02232B41F420910301309104017E
:1014C0003093ED022093EC02209101013091020152
:1014D0002115310541F42DB73EB7409105015091DA
:1014E0000601241B350BE091EC02F091ED02E217AE
:1014F000F307A0F42E1B3F0B2817390778F0AC0137
:101500004E5F5F4F2417350748F04E0F5F1F509313
:10151000ED024093EC02819391939FCFF0E0E0E0E5
:101520009CCFCF93DF930097E9F0FC0132971382B1
:101530001282A091EE02B091EF02ED0130E020E0C6
:101540001097A1F420813181820F931F2091EC022A
:101550003091ED022817390709F061C0F093ED02D0
:10156000E093EC02DF91CF910895EA01CE17DF07F7
:10157000E8F54A815B819E0141155105B1F7E9010A
:10158000FB83EA8349915991C40FD51FEC17FD07DE
:1015900061F4808191810296840F951FE9019983FE
:1015A0008883828193819B838A83F0E0E0E01296B6
:1015B0008D919C9113970097B9F52D913C911197BE
:1015C000CD010296820F931F2091EC023091ED0223
:1015D0002817390739F6309751F51092EF0210921B
:1015E000EE02B093ED02A093EC02BCCFD383C28392
:1015F00040815181840F951FC817D90761F44E5F50
:101600005F4F88819981480F591F518340838A8198
:101610009B81938382832115310509F0B0CFF0932C
:10162000EF02E093EE029ECFFD01DC01C0CF1382FA
:101630001282D7CFB0E0A0E0E0E2FBE00C94BA0960
:101640008C01009751F4CB010E94F5098C01C8016F
:10165000CDB7DEB7E0E10C94D609FC01E60FF71F29
:101660009C0122503109E217F30708F49DC0D9010B
:10167000CD91DC911197C617D70798F0C530D105E9
:1016800030F3CE0104978617970708F3C61BD70BD4
:101690002297C193D1936D937C93CF010E94910ABD
:1016A000D6CF5B01AC1ABD0A4C018C0E9D1EA091D9
:1016B000EE02B091EF02512C412CF12CE12C10974D
:1016C00031F58091EC029091ED028815990509F0B1
:1016D0005CC04616570608F058C0809101019091F1
:1016E0000201009741F48DB79EB7409105015091DA
:1016F0000601841B950BE817F90708F055C0F09315
:10170000ED02E093EC02F90171836083A0CF8D912B
:101710009C91119712966C90129713967C90139748
:10172000A815B90559F56C0142E0C40ED11CCA14C4
:10173000DB0420F1AC014A195B09DA011296159716
:1017400080F06282738251834083D9016D937C93D0
:10175000E114F10471F0D7011396FC93EE93129704
:1017600076CF22968C0F9D1FF90191838083F30120
:10177000EFCFF093EF02E093EE0269CF48165906DF
:1017800008F42C017D01D3019ACFCB010E94F50909
:101790007C01009749F0AE01B8010E94D70BC80147
:1017A0000E94910A870153CF10E000E050CFFB0167
:1017B000DC0102C001900D9241505040D8F70895CD
:1017C000FB01DC0101900D920020E1F7089510E08B
:1017D000C2E6D0E004C0FE010E94EF092196C336A4
:1017E000D107C9F7F894FFCF010000F00280000094
:1017F0000040001400540000000000510224026761
:1018000003FA011D020A02FB010000000038046611
:10181000016703930143616E612064652041637534
:10182000636172005065206465204C696D616F00D2
:1018300050652064652063616A6100496E6974695E
:10184000616C697A6572204C4344003D004F4B0047
:0C1850004445534154495641444F0000A8
:107E0000112484B714BE81FFF0D085E080938100F7
:107E100082E08093C00088E18093C10086E0809377
:107E2000C20080E18093C4008EE0C9D0259A86E02C
:107E300020E33CEF91E0309385002093840096BBD3
:107E4000B09BFECF1D9AA8958150A9F7CC24DD24C4
:107E500088248394B5E0AB2EA1E19A2EF3E0BF2EE7
:107E6000A2D0813461F49FD0082FAFD0023811F036
:107E7000013811F484E001C083E08DD089C08234E0
:107E800011F484E103C0853419F485E0A6D080C0E4
:107E9000853579F488D0E82EFF2485D0082F10E0AE
:107EA000102F00270E291F29000F111F8ED06801E7
:107EB0006FC0863521F484E090D080E0DECF843638
:107EC00009F040C070D06FD0082F6DD080E0C81688
:107ED00080E7D80618F4F601B7BEE895C0E0D1E017
:107EE00062D089930C17E1F7F0E0CF16F0E7DF06D8
:107EF00018F0F601B7BEE89568D007B600FCFDCFD4
:107F0000A601A0E0B1E02C9130E011968C91119780
:107F100090E0982F8827822B932B1296FA010C0160
:107F200087BEE89511244E5F5F4FF1E0A038BF0790
:107F300051F7F601A7BEE89507B600FCFDCF97BE46
:107F4000E89526C08437B1F42ED02DD0F82E2BD052
:107F50003CD0F601EF2C8F010F5F1F4F84911BD097
:107F6000EA94F801C1F70894C11CD11CFA94CF0C13
:107F7000D11C0EC0853739F428D08EE10CD085E9AC
:107F80000AD08FE07ACF813511F488E018D01DD067
:107F900080E101D065CF982F8091C00085FFFCCF94
:107FA0009093C60008958091C00087FFFCCF809118
:107FB000C00084FD01C0A8958091C6000895E0E648
:107FC000F0E098E1908380830895EDDF803219F02E
:107FD00088E0F5DFFFCF84E1DECF1F93182FE3DFCA
:107FE0001150E9F7F2DF1F91089580E0E8DFEE27F6
:047FF000FF270994CA
:027FFE00040479
:00000001FF
