:100000000C9469000C9491000C9491000C94910054
:100010000C9491000C9491000C9491000C9491001C
:100020000C9491000C9491000C9491000C9491000C
:100030000C9491000C9491000C9491000C949100FC
:100040000C94AA090C9491000C941A0A0C94F409CB
:100050000C9491000C9491000C9491000C949100DC
:100060000C944C0A0C9491001F1C1F1E1F1E1F1F76
:100070001E1F1E00000000240027002A00000000B0
:1000800000250028002B0000000000230026002986
:100090000004040404040404040202020202020331
:1000A000030303030301020408102040800102043B
:1000B00008102001020408102000000008000201BE
:1000C00000000304070000000000000000006B0BAC
:1000D000241311241FBECFEFD8E0DEBFCDBF25E033
:1000E000A6E3B2E001C01D92AD3AB207E1F712E01B
:1000F000A0E0B1E0E0EAFBE202C005900D92A63379
:10010000B107D9F710E0C8E6D0E004C02197FE019E
:100110000E94CB13C736D107C9F70E94130D0C9468
:10012000C3150C94000008950895833081F028F4DD
:10013000813099F08230A9F008958730A9F0883095
:10014000C9F08430B1F4809180008F7D03C080912C
:1001500080008F7780938000089584B58F7784BD69
:10016000089584B58F7DFBCF8091B0008F77809309
:10017000B00008958091B0008F7DF9CFCF93DF93C9
:10018000282F30E0F901E754FF4F8491F901EB5536
:10019000FF4FD491F901EF56FF4FC491CC23A1F04A
:1001A00081110E949500EC2FF0E0EE0FFF1FE95740
:1001B000FF4FA591B491EC91ED2381E090E009F41B
:1001C00080E0DF91CF91089580E090E0FACF1F9317
:1001D000CF93DF93282F30E0F901E754FF4F84914C
:1001E000F901EB55FF4FD491F901EF56FF4FC49140
:1001F000CC23A9F0162F81110E949500EC2FF0E07E
:10020000EE0FFF1FE358FF4FA591B4918FB7F894FD
:10021000EC91111108C0D095DE23DC938FBFDF91E4
:10022000CF911F910895DE2BF8CF3FB7F8948091BE
:10023000910290919202A0919302B091940226B5FE
:10024000A89B05C02F3F19F00196A11DB11D3FBF0E
:10025000BA2FA92F982F8827BC01CD01620F711DDD
:10026000811D911D42E0660F771F881F991F4A95D7
:10027000D1F708958F929F92AF92BF92CF92DF9263
:10028000EF92FF924B015C010E9415016B017C0112
:100290000E9415016C197D098E099F09683E734003
:1002A00081059105A8F321E0821A9108A108B108FF
:1002B00088EEC80E83E0D81EE11CF11C8114910465
:1002C000A104B10429F7FF90EF90DF90CF90BF9089
:1002D000AF909F908F900895AF92BF92CF92DF9290
:1002E000EF92FF920F931F93CF93DF936C017B01EB
:1002F0008B01040F151FEB015E01AE18BF08C0177C
:10030000D10759F06991D601ED91FC910190F081EE
:10031000E02DC6010995892B79F7C501DF91CF91B1
:100320001F910F91FF90EF90DF90CF90BF90AF9013
:100330000895FC01448155816081718184EB93E0D3
:100340000C946C01FC01538D448D252F30E0842FDB
:1003500090E0821B930B541710F0CF9608950197ED
:100360000895FC01918D828D981761F0A28DAE0FDA
:10037000BF2FB11D5D968C91928D9F5F9F73928F61
:1003800090E008958FEF9FEF0895FC01918D828D8D
:10039000981731F0828DE80FF11D858D90E008955A
:1003A0008FEF9FEF0895FC01918D228D892F90E0B2
:1003B000805C9F4F821B91098F73992708958BE072
:1003C00093E00E94D30121E0892B09F420E0822FE1
:1003D000089580E090E0892B29F00E94DF018111CF
:1003E0000C9400000895FC01A48DA80FB92FB11D35
:1003F000A35ABF4F2C91848D90E001968F7399275B
:10040000848FA689B7892C93A089B1898C91837038
:1004100080648C93938D848D981306C00288F38931
:10042000E02D80818F7D80830895EF92FF920F935E
:100430001F93CF93DF93EC0181E0888F9B8D8C8D90
:1004400098131AC0E889F989808185FF15C09FB784
:10045000F894EE89FF896083E889F9898081837047
:10046000806480839FBF81E090E0DF91CF911F91F6
:100470000F91FF90EF900895F62E0B8D10E00F5F17
:100480001F4F0F731127E02E8C8D8E110CC00FB6ED
:1004900007FCFACFE889F989808185FFF5CFCE0185
:1004A0000E94F301F1CFEB8DEC0FFD2FF11DE35A0C
:1004B000FF4FF0829FB7F8940B8FEA89FB89808108
:1004C0008062CFCFCF93DF93EC01888D8823B9F082
:1004D000AA89BB89E889F9898C9185FD03C080814F
:1004E00086FD0DC00FB607FCF7CF8C9185FFF2CFCC
:1004F000808185FFEDCFCE010E94F301E9CFDF912E
:10050000CF910895DC01FB012C9130E02053384F4E
:10051000808190E08053984F2817390758F12817A9
:10052000390731F511969C9111978181981710F137
:1005300098131EC012969C91129782819817D0F042
:10054000981316C013969C9113978381981790F077
:1005500098130EC014969C9114978481981750F0AC
:10056000981306C081E015962C919581291708F003
:1005700080E0089581E00895EF92FF920F931F931A
:10058000CF93DF93EC0169813881432F50E02A81BA
:10059000822F90E0E8E6F0E021E0261730F4749135
:1005A000870F911D2F5F3196F8CF633018F03370AD
:1005B00009F401966DE671E0469F9001479F300D6A
:1005C000569F300D1124215031094D5F5F4F5695D4
:1005D000479556954795240F351F280F391FA8E1D9
:1005E000B0E00E949A132B817B018C01E20EF11C7A
:1005F000011D111DA8019701ACE3B0E00E94581342
:100600002C817B018C01E20EF11C011D111DA80142
:1006100097010E945813AB01BC019D81892F90E086
:10062000B0E0A0E080589C4BA249B74C8A019B01E6
:10063000080F191F2A1F3B1FC901B801DF91CF9175
:100640001F910F91FF90EF9008958F929F92AF921C
:10065000BF92CF92DF92EF92FF92CF93DF93EC01A4
:100660006A017B0180E8C81A83E4D80A8DE6E80AAB
:1006700088E3F80A8CE3882E912CA12CB12CC701B9
:10068000B601A50194010E94A9136D83CA01B901A5
:10069000A50194010E94A9136C83C701B60120E152
:1006A0003EE040E050E00E94A913CA01B90128E1F0
:1006B00030E040E050E00E94A9136B83C701B6010F
:1006C00020E831E541E050E00E94A913188263E977
:1006D0007EEF8881982F937041E050E011F050E058
:1006E00040E0FA01E359FE4F2E173F0740F0FB01AF
:1006F000E41BF50B2E0F3F1F8F5F8883EACF81E04D
:10070000898389818C30A0F4482F4150550BFA0120
:10071000E859FF4FE491911103C0823009F4EF5F73
:10072000F0E02E173F0720F02E1B3F0B8F5FE8CF26
:100730002F5F2A83DF91CF91FF90EF90DF90CF90D2
:10074000BF90AF909F908F90089508952091570289
:10075000260F3327331F21323105ECF42091E102BB
:10076000FC0190E080E0243069F082E00895A091DF
:1007700057022191AC01495C5D4FA40FB52FB11D0B
:100780002C930196861798F380915702680F609317
:10079000570280E0089581E008951092E10281E01F
:1007A0008093E0021092BB0261E082E10E94E700C8
:1007B00061E083E10E94E700E9EBF0E080818E7F59
:1007C000808380818D7F808388E48093B80085E476
:1007D0008093BC00089510929A0210929902109290
:1007E000E80210920A030E94CD0383E990E09093FF
:1007F00098028093970284E990E090939602809308
:1008000095020895CF93DF9391E090933602882369
:10081000B9F0C091B800D091BA008091BC008A7B39
:100820008093BC0060E082E10E94E70060E083E129
:100830000E94E7000E94CD03D093BA00C093B80095
:10084000DF91CF9108958F929F92AF92BF92CF92F6
:10085000DF92EF92FF920F931F93CF93DF93D0918C
:100860000A03D13208F0D7C0182FC09109030E94A3
:1008700015016B017C018091E10281116BC082E066
:100880008093E1021093E0028FEF8093DF021092D9
:10089000DE02D093DD02A9EEB2E0EDEBF2E080E003
:1008A000D81391C01092BC028091BC02CC0FC82B0F
:1008B000C093BC028091BB02813009F088C01092C5
:1008C000BB020E9415016B017C018091BC028093E8
:1008D000BB008091E3029091E402A091E502B09107
:1008E000E602892B8A2B8B2BA1F00E941501009127
:1008F000E3021091E4022091E5023091E6026C19C6
:100900007D098E099F09061717072807390708F47C
:1009100042C08091BC0083FDD8CF85EC8093BC00A1
:100920000E9415016B017C018091E102823009F483
:1009300050C08091DF028F3F09F46FC08091DF02C9
:10094000803209F46CC08091DF02803309F469C001
:1009500084E026C08091E3029091E402A091E50238
:10096000B091E602892B8A2B8B2B09F484CF0E944D
:1009700015018090E3029090E402A090E502B0900F
:10098000E6026C197D098E099F0986169706A8064E
:10099000B90608F070CF8091E2020E94020485E05F
:1009A0001092E80210920A031092E702DF91CF91B1
:1009B0001F910F91FF90EF90DF90CF90BF90AF907D
:1009C0009F908F9008959D9191938F5F69CF85EE51
:1009D000A5CF8091E3029091E402A091E502B0914D
:1009E000E602892B8A2B8B2B09F49ECF0E941501DE
:1009F0000091E3021091E4022091E5023091E602B9
:100A00006C197D098E099F090617170728073907F2
:100A100008F08ACFC0CF81E0C3CF80E0C1CF82E0B1
:100A2000BFCF83E0BDCFCF93DF93EC018B818823D1
:100A3000A1F0888191E09093E702809309031092DE
:100A4000E80210920A0381E00E94230491E08111E0
:100A500090E0892FDF91CF9108950E94EB0381E010
:100A60008B83CE010E941305982F8111E2CFF1CF25
:100A70000895E0919A0280919902E81730F4F0E02D
:100A8000E556FD4F808190E008958FEF9FEF089528
:100A900090919A02809199022FEF3FEF981748F4B6
:100AA000E92FF0E0E556FD4F208130E09F5F909305
:100AB0009A02C90108958091990290919A02891B26
:100AC000990B0895CF92DF92EF92FF920F931F93AD
:100AD000CF93DF937C01CB018A012091E70222238F
:100AE00089F0EB016B01C40ED51ECC15DD0569F054
:100AF0006991D701ED91FC910190F081E02DC70142
:100B00000995F3CF642F0E94A603C801DF91CF910E
:100B10001F910F91FF90EF90DF90CF900895CF93AA
:100B2000DF931F92CDB7DEB769832091E7022223BE
:100B3000F9F020910A03203258F021E030E0FC0166
:100B40003383228390E080E00F90DF91CF9108956E
:100B50008091E802E82FF0E0E751FD4F9981908302
:100B60008F5F8093E80280930A0381E090E0ECCFEE
:100B700061E0CE0101960E94A603F7CFFC0124811B
:100B800031E03093E702209309031092E8021092BB
:100B90000A038385682B88EA93E00E948F0581E031
:100BA0000C94230490E080E008951F93CF93DF938B
:100BB000EC011E81111119C088810E94BE00892B91
:100BC00051F48981811107C081E08983812FDF91F0
:100BD000CF911F91089588810E94BE00892BB1F3A7
:100BE0001981112399F31982F1CF198210E0EECF08
:100BF000CF93DF93DC016C9311961C92119770E0F8
:100C0000FB01EB55FF4F94916F567F4FFB012491F1
:100C10002223C9F030E0220F331FF901ED58FF4FB6
:100C200045915491F901E358FF4FC591D4912FB7E5
:100C3000F894FA013081892F809583238083E8819D
:100C40009E2B98832FBF8FB7F89440918D025091BF
:100C50008E0260918F02709190028FBF12964D9319
:100C60005D936D937C931597DF91CF9108952F92AB
:100C70003F924F925F926F927F928F929F92AF922C
:100C8000BF92CF92DF92EF92FF920F931F93CF9379
:100C9000DF9300D000D000D01F92CDB7DEB78C011B
:100CA0001982A090C003B090C103D50114968D9114
:100CB0009C911597892B09F427C111968D919C91D0
:100CC00012972C9131E03093E702209309031092A0
:100CD000E80210920A03DC01ED91FC910280F3819D
:100CE000E02D41E050E0BE016F5F7F4F0995019715
:100CF00009F00AC180E00E942304811105C1D12CB2
:100D0000C12C87E0282E312CF50184819581710159
:100D1000EC18FD088E159F0508F47C01D5018C9018
:100D20000E9415012B013C018091E102811175C0E7
:100D30009E2CB0E2BE1510F4B0E29B2EE1E0E093F1
:100D4000E10221E0C1018E199F09C816D90608F4F5
:100D500020E02093E002FFEFF093DF021092DE022A
:100D60008FEF890D8093DD0281E08093BC0280913A
:100D7000BC02880C882A8092BC028091BB02813020
:100D800009F095C01092BB020E9415012B013C0195
:100D90008091BC028093BB008091E3029091E402B9
:100DA000A091E502B091E602892B8A2B8B2BA1F052
:100DB0000E9415012091E3023091E4024091E50286
:100DC0005091E602641975098609970926173707B5
:100DD0004807590708F442C08091BC0083FDD8CF72
:100DE000A5ECA093BC000E9415012B013C01809151
:100DF000E102813009F45FC08091DE02891510F4B0
:100E00009090DE02ADEBB2E0EBE9F2E080E0891514
:100E100051F19D9191938F5FFACF8091E302909170
:100E2000E402A091E502B091E602892B8A2B8B2B7C
:100E300009F47ACF0E9415012091E3023091E40277
:100E40004091E5025091E6026419750986099709F7
:100E5000261737074807590708F066CF8091E20246
:100E60000E940204912C10929A02909299029E1470
:100E70001F0409F049C088248394912C8C0E9D1E78
:100E80008C0C9D1C3401C401861997098E159F0591
:100E9000A0F5F50181819281DC01ED91FC91028444
:100EA000F385E02D0995F40181934F01ECCFB5EE68
:100EB000B093BC0098CF8091E3029091E402A0919E
:100EC000E502B091E602892B8A2B8B2B09F48FCF98
:100ED0000E9415012091E3023091E4024091E50265
:100EE0005091E60264197509860997092617370794
:100EF0004807590708F07BCFB1CFCE0CDF1CF7E0D5
:100F0000CF16D10408F400CFE981EF77FA81FB8096
:100F10005D814E814F778F81282F30E094E03595A9
:100F200027959A95E1F7922F990F990F291B220F78
:100F3000280FD8012C93842F90E024E09595879575
:100F40002A95E1F7982F990F990F891B880F840F25
:100F500011968C931197652F70E034E07595679525
:100F60003A95E1F7862F880F880F681B660F650F8B
:100F700012966C9312974F2D50E064E0559547956B
:100F80006A95E1F7842F880F880F481B440F4F0D97
:100F900013964C9313972F2F30E074E035952795D7
:100FA0007A95E1F7822F880F880F281B220F2F0FC9
:100FB00014962C9314978E2F90E0F4E095958795D6
:100FC000FA95E1F7982F990F990F891B880F8E0FCB
:100FD00015968C93C80127960FB6F894DEBF0FBE06
:100FE000CDBFDF91CF911F910F91FF90EF90DF90D8
:100FF000CF90BF90AF909F908F907F906F905F90B9
:101000004F903F902F9008950F931F93CF938C0193
:10101000C62F0E94BE056C2F6460C8010E94BE05E9
:101020006C2F6B7FC8010E94BE0583EC90E0019796
:10103000F1F7CF911F910F9108950F931F93CF93C5
:10104000DF938C01D62FC42F607F642B0E9404088D
:1010500080E1D89FB00111246C2BC801DF91CF91A2
:101060001F910F910C94040840E061E084EB93E041
:101070000E941D088BE39FE10197F1F70895CF933C
:10108000DF93CDB7DEB728970FB6F894DEBF0FBE5B
:10109000CDBF98E0E7E0F1E0DE01119601900D92FE
:1010A0009A95E1F79091BC03981708F48FEF90E0C0
:1010B000880F991F21E030E02C0F3D1F820F931FF6
:1010C000FC016081606840E084EB93E028960FB6F5
:1010D000F894DEBF0FBECDBFDF91CF910C941D08F9
:1010E00041E00E941D0881E090E008958F929F9258
:1010F000AF92BF920F931F93CF93DF93CDB7DEB71D
:10110000A1970FB6F894DEBF0FBECDBF19A2423033
:1011100008F44AE08E010F5D1F4F842E912CB12CF4
:10112000A12CA50194010E94A913E62FB901CA01BF
:10113000EA3044F5E05DD801EE938D01232B242B9A
:10114000252B79F790E080E0109769F0FD01019080
:101150000020E9F73197AF014A1B5B0BBD0184EB1F
:1011600093E00E946C01A1960FB6F894DEBF0FBE0B
:10117000CDBFDF91CF911F910F91BF90AF909F9006
:101180008F900895E95CD7CFCF92DF92EF92FF92D4
:101190006C01990FEE08FF08F7FE16C041E06DE202
:1011A00084EB93E00E941D0866277727CB016C191A
:1011B0007D098E099F094AE00E9476080196FF90FA
:1011C000EF90DF90CF9008954AE0C701B601FF90FD
:1011D000EF90DF90CF900C947608682F70E090E04D
:1011E00080E04AE00C947608FC0101900020E9F7C9
:1011F0003197AF01481B590BBC0184EB93E00C9471
:101200006C01FC0180819181009711F00C946D14A8
:101210000895EF92FF920F931F93CF93DF93EC010A
:101220007B018A0188819981009729F02A813B817D
:101230002417350788F4B8016F5F7F4F0E94F614BA
:10124000009791F0998388831B830A832C813D81C9
:10125000232B11F4FC0110821D830C83B7018881BC
:1012600099810E94BC150CC088819981009711F06A
:101270000E946D14198218821D821C821B821A82A0
:10128000CE01DF91CF911F910F91FF90EF900895C4
:10129000FC01118210821382128215821482FB01DA
:1012A00001900020E9F73197AF01461B570B0C94D2
:1012B000090985ED8093BC008091E3029091E402DE
:1012C000A091E502B091E6020796A11DB11D23E0B1
:1012D000B695A795979587952A95D1F72091BC004B
:1012E00024FD03C01092E10208954091E302509161
:1012F000E4026091E5027091E602452B462B472BF4
:1013000069F30097A105B10541F02AE22A95F1F7AA
:1013100000C00197A109B109E1CF8091E2020C94CC
:101320000204FF920F931F93CF93DF93EC01F62EED
:1013300008811981C8010E944213F81621F06F2D0F
:10134000C8010E944A13CE01DF91CF911F910F91E6
:10135000FF9008951F920F920FB60F9211242F93B2
:101360003F938F939F93AF93BF9380918D02909102
:101370008E02A0918F02B091900230918C0223E0F6
:10138000230F2D3758F50196A11DB11D20938C0216
:1013900080938D0290938E02A0938F02B09390025F
:1013A0008091910290919202A0919302B091940247
:1013B0000196A11DB11D8093910290939202A0937A
:1013C0009302B0939402BF91AF919F918F913F91FF
:1013D0002F910F900FBE0F901F90189526E8230FA6
:1013E0000296A11DB11DD2CF1F920F920FB60F9280
:1013F00011242F933F934F935F936F937F938F931A
:101400009F93AF93BF93EF93FF938BE093E00E9482
:10141000F301FF91EF91BF91AF919F918F917F91D8
:101420006F915F914F913F912F910F900FBE0F9051
:101430001F9018951F920F920FB60F9211242F93A1
:101440008F939F93EF93FF93E0911B03F0911C0305
:101450008081E0912103F091220382FD1BC09081E5
:10146000809124038F5F8F7320912503821741F0B1
:10147000E0912403F0E0E55FFC4F958F8093240317
:10148000FF91EF919F918F912F910F900FBE0F9031
:101490001F9018958081F4CF1F920F920FB60F9274
:1014A00011242F933F934F935F936F937F938F9369
:1014B0009F93AF93BF93EF93FF938091B900887F81
:1014C000803609F44AC0F0F5883209F4A7C018F54F
:1014D000803109F49BC0B8F4882309F4F9C088303E
:1014E00009F494C0FF91EF91BF91AF919F918F91BB
:1014F0007F916F915F914F913F912F910F900FBE10
:101500000F901F901895883109F488C0803251F7E8
:101510008093DF0214C0803409F49DC040F480330E
:10152000B9F38833F9F68093DF0285ECB0C08035DB
:1015300009F485C0883509F496C0883499F60E946C
:101540005909D0CF883909F48CC038F5883729F08B
:1015500050F4883611F0803729F683E08093E10259
:101560001092790257C0883809F47BC0803919F08D
:10157000803809F0B7CF80917902803208F071C0CD
:10158000E091790281E08E0F809379028091BB0017
:10159000F0E0E75AFD4F80833DC0803B39F0E0F436
:1015A000803A09F479C0883A09F09CCF84E08093AE
:1015B000E1021092580210925702E0919702F091C6
:1015C000980209958091570281110FC081E08093A4
:1015D00057021092370209C0803C09F4A6CF883C1C
:1015E00009F4A3CF883B09F07DCFE091580281E058
:1015F0008E0F80935802F0E0E95CFD4F808180936C
:10160000BB00909158028091570229C08091BC0282
:101610008093BB0085EC8093BC0064CF9091DE0288
:101620008091DD02981758F5E091DE0281E08E0F7F
:101630008093DE02F0E0E354FD4F8081E9CFE0913A
:10164000DE0281E08E0F8093DE028091BB00F0E02D
:10165000E354FD4F80839091DE028091DD02981764
:10166000C8F285E8D8CFE091DE0281E08E0F80934A
:10167000DE028091BB00F0E0E354FD4F8083809157
:10168000E00281115CCF81E08093BB0284EA809309
:10169000BC001092E10226CF85EC8093BC00109232
:1016A000E10280917902803230F4E0917902F0E039
:1016B000E75AFD4F10826091790270E0E091950247
:1016C000F091960289E592E00995109279020ACF8D
:1016D0001092DF0234CFAF92BF92CF92DF92EF929F
:1016E000FF920F931F93CF93DF9310920E031092EC
:1016F0000D0388EE93E0A0E0B0E080930F03909399
:101700001003A0931103B093120325E331E030934B
:101710000C0320930B0325EC30E030931803209347
:10172000170324EC30E030931A032093190320ECC4
:1017300030E030931C0320931B0321EC30E0309306
:101740001E0320931D0322EC30E0309320032093EE
:101750001F0326EC30E030932203209321031092E4
:10176000240310922503109226031092270310924F
:10177000AB031092AA038093AC039093AD03A093A4
:10178000AE03B093AF0387E491E09093A9038093F5
:10179000A80362E082EA95E00E94F80563E08BE925
:1017A00095E00E94F80564E084E995E00E94F80560
:1017B000C3E2EBE2F5E0DF018C2F1D928A95E9F799
:1017C00061E671E0CF010E9448098DE090E09093BE
:1017D00032058093310540E853E46DE678E38CE30D
:1017E00095E00E94250340E853E46DE678E382E447
:1017F00095E00E94250340E853E46DE678E388E431
:1018000095E00E942503EEE4F5E0DF018C2F1D92A8
:101810008A95E9F760E771E0CF010E9448098CE002
:1018200090E0909355058093540540E853E46DE6AD
:1018300078E38FE595E00E94250340E853E46DE6E8
:1018400078E385E695E00E94250340E853E46DE6E1
:1018500078E38BE695E00E942503E1E7F5E0DF0100
:101860001D92CA95E9F76CE771E0CF010E94480923
:101870008BE090E0909378058093770540E853E4FF
:101880006DE678E382E895E00E94250340E853E4A2
:101890006DE678E388E895E00E94250340E853E48C
:1018A0006DE678E38EE895E00E9425031092B70379
:1018B0001092B60389E591E09093B5038093B40349
:1018C00087E28093B80380E18093BD0382E0809338
:1018D000BE031092BF031092C1031092C003C2EC6A
:1018E000D3E0198218821B821A821D821C8250E06A
:1018F00040E06FEE71E0CE010E94090940E853E438
:101900006DE678E3CE0141960E94250340E853E45A
:101910006DE678E3CE0147960E94250340E853E444
:101920006DE678E3CE014D960E942503A396B5E0BF
:10193000C032DB07B1F66FEE71E082E295E00E9403
:10194000480910922A05D12CC12CD0E0C0E0FE013C
:10195000E55DFA4F7F01CC54DC4F10E000E08AE0F7
:10196000A82EB12CF3E0CF16D10408F04BC0D7015C
:101970006D917C91119761157105B9F114964D9196
:101980005C91CE010E960E940909F701868197812C
:101990009D8B8C8B1E8ABC8EAB8EBE8EAD8EFFEF68
:1019A000CF1ADF0AC8010B960E94421390E0988F6D
:1019B0008F8BC8010C960E94421390E09A8F898FFA
:1019C000C8010D960E94421390E09E8F8D8FC80132
:1019D0000E960E94421390E09C8F8B8F83E2E80E5C
:1019E000F11CA396065F1F4FBDCF8E859F85009784
:1019F00011F00E946D141F861E861B8A1A8A198A8E
:101A0000188AC3CF82E090E090932105809320054F
:101A1000DF91CF911F910F91FF90EF90DF90CF90CA
:101A2000BF90AF900895CF93DF93CDB7DEB72E97D9
:101A30000FB6F894DEBF0FBECDBF789484B5826038
:101A400084BD84B5816084BD85B5826085BD85B562
:101A5000816085BD80916E00816080936E001092E0
:101A6000810080918100826080938100809181005B
:101A700081608093810080918000816080938000EC
:101A80008091B10084608093B1008091B00081604A
:101A90008093B00080917A00846080937A00809176
:101AA0007A00826080937A0080917A0081608093CE
:101AB0007A0080917A00806880937A001092C10049
:101AC000E0911B03F0911C0382E08083E0911703F7
:101AD000F09118031082E0911903F0911A038FEC32
:101AE000808310922303E0911F03F091200386E08E
:101AF0008083E0911D03F0911E03808180618083CB
:101B0000E0911D03F0911E03808188608083E09145
:101B10001D03F0911E03808180688083E0911D0386
:101B2000F0911E0380818F7D80830E94EB031092D1
:101B3000B9038091BE03823018F098E09093B90306
:101B40008093BC0362E370E080E090E00E943A0181
:101B50006091BF0384EB93E00E94BE0568EE73E0E2
:101B600080E090E00E943A0160E384EB93E00E9401
:101B700004080BE416E4C8010197F1F760E384EB75
:101B800093E00E940408C8010197F1F760E384EB39
:101B900093E00E94040883E592E00197F1F760E288
:101BA00084EB93E00E9404086091B903606240E016
:101BB00084EB93E00E941D0884E08093BA0340E028
:101BC0006CE084EB93E00E941D080E94340882E0E0
:101BD0008093BB0340E066E084EB93E00E941D0825
:101BE00040E062E084EB93E00E941D088BE39FE1FC
:101BF0000197F1F788E08093BF0360E084EB93E006
:101C00000E94BE0580E00E943F0887E891E00E94A4
:101C1000F40881E00E943F0801E110E088EB91E0C8
:101C20000E94F40864E670E080E090E00E943A01CF
:101C30000150110999F70E9434088091C0039091D6
:101C4000C103009711F00E946D1486E090E00E949D
:101C5000D1138C0188E6F801808388EA93E09283AF
:101C60008183138280E290E0958384831093C10383
:101C70000093C0030E94EB0381E0F8018383C80155
:101C80000E94130562E370E080E090E00E943A0158
:101C9000F12CE12C04EB13E08091200590912105BB
:101CA0008E159F050CF0A4C102EC13E0F12CE12C81
:101CB00080912005909121058E159F050CF0C0C1E3
:101CC00001E013E2EAE02E2E82EA95E00E94D505BB
:101CD00080938B028091A2050E94BE00892B09F09F
:101CE000F1C18091A8058111EDC12FB7F8948091C1
:101CF0008D0290918E02A0918F02B09190022FBF21
:101D00004091A4055091A5056091A6057091A70585
:101D1000841B950BA60BB70B883E9340A105B1051C
:101D2000B8F02FB7F89480918D0290918E02A09117
:101D30008F02B09190022FBF8093A4059093A505C8
:101D4000A093A605B093A7050093A805DD24D3941E
:101D5000D0928A028BE995E00E94D505482E8093A7
:101D6000890284E995E00E94D505C82E80938802F7
:101D700050908B0280910001882309F4C5C1109214
:101D80000001DD2009F484C08091850290918602D3
:101D900010922A058130910509F0EBC1109286025C
:101DA00010928502A0908102B09082021A9D3001AB
:101DB0001B9D700C11247E866D86C3018C549C4F34
:101DC0007C01FC013788CE0101960E943706CE01C6
:101DD00001960E94BC02232D330C330B440B550B90
:101DE00039014A01660E771E881E991EB401A301AF
:101DF000CE0107960E942503AD85BE85AD52BC4F2E
:101E000086E0FE01379601900D928A95E1F7F70181
:101E10006789FFEFAF1ABF0A2A9C40012B9C900CE8
:101E20001124C40101969A838983CE0101960E94F0
:101E30009109F701618DC40102969A838983CE01CD
:101E400001960E949109F701658DC40103969A835A
:101E50008983CE0101960E949109F701638DF4E018
:101E60008F0E911C9A828982CE0101960E9491095F
:101E70001092800210927F021092840210928302CC
:101E800010927E0210927D0210927C0210927B02D0
:101E90000E9434088091850290918602009709F48F
:101EA0006EC1019709F040C1442009F425C2809118
:101EB0007B0290917C028230910509F018C2109249
:101EC0007C0210927B02CC2039F052E0652E712CFE
:101ED00070927C0260927B0280912A05811130C051
:101EE00045E0E42EF12C0E94340864E670E080E0C6
:101EF00090E00E943A0180E00E943F088AEA91E067
:101F00000E94F40881E00E943F08209181023091F4
:101F10008202129FC001139F900D11248E539C4F7B
:101F20000E9499016CE271E080E090E00E943A0129
:101F300021E0E21AF108B9F600932A050E9434085C
:101F400080917B0290917C028130910509F401C25D
:101F50008230910509F465C2892B09F0E5C055204E
:101F6000C9F080917F02909180022091810230918E
:101F70008202873091050CF4CFC11092800210923A
:101F80007F02129FF001139FF00D1124EC54FC4FBF
:101F9000108E178A80E00E943F088AEB91E00E9431
:101FA000F40881E00E943F088091810290918202B2
:101FB000189FF001199FF00D1124EC54FC4F8789F4
:101FC000908D892B09F4C0C18BEC91E00E94F4083C
:101FD0008091810290918202189FF001199FF00D6B
:101FE0001124EC54FC4F8789908D0E94C4089CC03A
:101FF000F8018788CE0101960E943706CE0101962E
:102000000E94BC02082C000C9908AA08BB08AB016E
:10201000BC01480D591D6A1D7B1DCE0107960E940B
:10202000250386E0FE013796D8015F9601900D9258
:102030008A95E1F7FFEFEF1AFF0A0D5D1F4F2CCED7
:10204000F801868197819927FC01EB55FF4F249178
:102050008F569F4FFC018491882399F090E0880F60
:10206000991FFC01ED58FF4FA591B491FC01E35875
:10207000FF4F859194918FB7F894EC912E2B2C9370
:102080008FBF80E00E943F08C8010E94990181E053
:102090000E943F0887E991E00E94F40864E670E03E
:1020A00080E090E00E943A010E94340864E670E00B
:1020B00080E090E00E943A01FFEFEF1AFF0A0D5D09
:1020C0001F4FF6CD8091A2050E94BE00892BA9F476
:1020D0002FB7F89480918D0290918E02A0918F027B
:1020E000B09190022FBF8093A4059093A505A09373
:1020F000A605B093A705D12C2BCE8091A8058823E7
:1021000039F31092A805E4CF90918702842D8D2990
:10211000852911F4CC2029F0911106C00093870283
:1021200030CE91111092870264EBE62E63E0F62E1A
:102130005701912C812C80912005909121058815C3
:1021400099050CF4DAC1CE0101960E943706B5015B
:10215000615E7F4FCE0101960E948202811102C012
:10216000F501068BFFEF8F1A9F0A23E2A20EB11C26
:10217000E2CF0196909386028093850289CE442017
:1021800009F475C08091810290918202209120050E
:10219000309121058217930709F064C010928202E2
:1021A00010928102CC2041F0809120059091210570
:1021B0009093820280938102552029F080917A02C7
:1021C000802780937A0280E00E943F08209181025C
:1021D00030918202129FC001139F900D11248E53E3
:1021E0009C4F0E94990181E00E943F0880917A02F1
:1021F000882309F448C08AE991E00E94F40880919C
:10220000810290918202189FF001199FF00D112414
:10221000ED52FC4F82810E94ED0880EA91E00E941D
:10222000F4088091810290918202189FF001199F19
:10223000F00D1124ED52FC4F83810E94ED0888EAD5
:1022400091E00E94F4088091810290918202189F8F
:10225000F001199FF00D1124ED52FC4F84810E9472
:10226000ED0862CF01969093820280938102CC2088
:1022700009F4A2CF8091810290918202009709F423
:1022800093CF019795CF85EA91E00E94F408809161
:10229000810290918202189FF001199FF00D112484
:1022A000E752FC4F82810E94ED0880EA91E00E9493
:1022B000F4088091810290918202189FF001199F89
:1022C000F00D1124E752FC4F83810E94ED0888EA4B
:1022D00091E00E94F4088091810290918202189FFF
:1022E000F001199FF00D1124E752FC4FB7CF019672
:1022F00090937C0280937B02CC2009F4EDCD8091F9
:102300007B0290917C02009709F4DFCD01979093B6
:102310007C0280937B02E0CD0196909380028093B3
:102320007F02129FD001139FB00D1124AC54BC4FFB
:10233000880F991FFC01E15FFE4F808191815896C3
:102340009C938E93579726CE85ED91E00E94F408DA
:10235000EBCE5520D1F080918302909184022091A0
:1023600081023091820288309105ECF11092840252
:1023700010928302129FF001139FF00D1124EC5470
:10238000FC4F8AE090E0948F838F80E00E943F08AA
:102390008FED91E00E94F408809181029091820279
:1023A000189FF001199FF00D1124EC54FC4F838D00
:1023B000948D8A30910511F04E9769F581E00E9465
:1023C0003F0880EF91E00E94F40880918102909193
:1023D0008202189FF001199FF00D1124EC54FC4F5C
:1023E000838D948D02CE0196909384028093830214
:1023F000129FD001139FB00D1124AC54BC4F880F15
:10240000991FFC01E15EFE4F808191815C969C9357
:102410008E935B97BACF81E00E943F088EEF91E0E8
:10242000D2CF5520E9F080917D0290917E028230DA
:1024300091050CF45CC010927E0210927D02809196
:10244000810290918202189FF001199FF00D1124D2
:10245000EC54FC4F80917D0290917E02928F818F8F
:1024600080E00E943F088AE092E00E94F40881E048
:102470000E943F088BE192E00E94F4088091810263
:1024800090918202189FF001199FF00D1124EC54D5
:10249000FC4F818D928D892B21F482E292E00E9483
:1024A000F4088091810290918202189FF001199F97
:1024B000F00D1124EC54FC4F818D928D019721F485
:1024C00086E292E00E94F40880918102909182025B
:1024D000189FF001199FF00D1124EC54FC4F818DD1
:1024E000928D029709F020CE8CE292E02FCF0196D8
:1024F00090937E0280937D02A2CFB12CA12C80917B
:102500002005909121058A159B050CF48AC0F701DE
:102510008689882309F47EC084890E94BE00892BA5
:1025200049F5F701C38CCE0101960E943706CE0112
:1025300001960E94BC022C2DCC0C330B440B550B86
:1025400039014A01660E771E881E991EB401A30147
:10255000CE0107960E94250386E0FE013796D7013B
:102560009B9601900D928A95E1F761E0F7018489CD
:102570000E94E700F7018689882309F44BC084890B
:102580000E94BE00892B09F445C0CE0101960E942D
:102590003706B701655D7F4FCE0101960E9482022A
:1025A000811138C0F701168ACE0101960E943706C4
:1025B00086E0FE013196D701959601900D928A959D
:1025C000E1F7F701C788CE0101960E943706CE01D8
:1025D00001960E94BC022C2DCC0C330B440B550BE6
:1025E00039014A01660E771E881E991EB401A301A7
:1025F000CE0107960E94250386E0FE013796D7019B
:102600005F9601900D928A95E1F760E0F701848969
:102610000E94E700FFEFAF1ABF0A23E2E20EF11CAF
:102620006ECF64E070E080E090E00E943A0180E0CC
:1026300090E0892B09F448CB0E94DF01882309F43C
:1026400043CB0E94000040CBCF93DF9382E295E022
:102650000E940109C0E2D5E0A397CE010E940109C2
:1026600083E0C23CD807C1F781E795E00E940109E9
:102670008EE495E00E9401098BE295E0DF91CF9115
:102680000C940109F999FECF92BD81BDF89A992762
:1026900080B50895262FF999FECF1FBA92BD81BD4E
:1026A00020BD0FB6F894FA9AF99A0FBE01960895D4
:1026B0000E949A13A59F900DB49F900DA49F800D2A
:1026C000911D112408952F923F924F925F926F9225
:1026D0007F928F929F92AF92BF92CF92DF92EF92B2
:1026E000FF920F931F93CF93DF93CDB7DEB7CA1B33
:1026F000DB0B0FB6F894DEBF0FBECDBF09942A885E
:10270000398848885F846E847D848C849B84AA8405
:10271000B984C884DF80EE80FD800C811B81AA8192
:10272000B981CE0FD11D0FB6F894DEBF0FBECDBF5D
:10273000ED010895A29FB001B39FC001A39F700D4A
:10274000811D1124911DB29F700D811D1124911DB9
:102750000895A1E21A2EAA1BBB1BFD010DC0AA1FE2
:10276000BB1FEE1FFF1FA217B307E407F50720F0FA
:10277000A21BB30BE40BF50B661F771F881F991F75
:102780001A9469F760957095809590959B01AC01BE
:10279000BD01CF010895EE0FFF1F0590F491E02DCC
:1027A00009940F931F93CF93DF938230910510F418
:1027B00082E090E0E091AB05F091AC0530E020E0E4
:1027C000B0E0A0E0309799F42115310509F44AC032
:1027D000281B390B24303105D8F58A819B8161157E
:1027E000710589F1FB0193838283FE0111C0408151
:1027F00051810281138148175907E0F048175907A2
:1028000099F4109761F012960C93129713961C93FB
:102810003296CF01DF91CF911F910F9108950093D0
:10282000AB051093AC05F4CF2115310551F04217DB
:10283000530738F0A901DB019A01BD01DF01F8015E
:10284000C1CFEF01F9CF9093AC058093AB05CDCF0D
:10285000FE01E20FF31F81939193225031093983D6
:102860002883D7CF2091A9053091AA05232B41F4C5
:1028700020910301309104013093AA052093A9050A
:1028800020910101309102012115310541F42DB74C
:102890003EB74091050150910601241B350BE09194
:1028A000A905F091AA05E217F307A0F42E1B3F0B30
:1028B0002817390778F0AC014E5F5F4F24173507B2
:1028C00048F04E0F5F1F5093AA054093A9058193CE
:1028D00091939FCFF0E0E0E09CCFCF93DF93009700
:1028E000E9F0FC01329713821282A091AB05B091FE
:1028F000AC05ED0130E020E01097A1F4208131819A
:10290000820F931F2091A9053091AA052817390736
:1029100009F061C0F093AA05E093A905DF91CF917A
:102920000895EA01CE17DF07E8F54A815B819E0131
:1029300041155105B1F7E901FB83EA8349915991AA
:10294000C40FD51FEC17FD0761F4808191810296B9
:10295000840F951FE90199838883828193819B83EA
:102960008A83F0E0E0E012968D919C911397009796
:10297000B9F52D913C911197CD010296820F931FCD
:102980002091A9053091AA052817390739F6309703
:1029900051F51092AC051092AB05B093AA05A09327
:1029A000A905BCCFD383C28340815181840F951F79
:1029B000C817D90761F44E5F5F4F88819981480F2E
:1029C000591F518340838A819B8193838283211580
:1029D000310509F0B0CFF093AC05E093AB059ECF85
:1029E000FD01DC01C0CF13821282D7CFB0E0A0E09E
:1029F000ECEFF4E10C9465138C01009751F4CB01DA
:102A00000E94D1138C01C801CDB7DEB7E0E10C9470
:102A10008113FC01E60FF71F9C0122503109E217D8
:102A2000F30708F49DC0D901CD91DC911197C61729
:102A3000D70798F0C530D10530F3CE01049786173B
:102A4000970708F3C61BD70B2297C193D1936D93B9
:102A50007C93CF010E946D14D6CF5B01AC1ABD0AE6
:102A60004C018C0E9D1EA091AB05B091AC05512C74
:102A7000412CF12CE12C109731F58091A905909112
:102A8000AA058815990509F05CC04616570608F096
:102A900058C08091010190910201009741F48DB7D7
:102AA0009EB74091050150910601841B950BE817D4
:102AB000F90708F055C0F093AA05E093A905F901BC
:102AC00071836083A0CF8D919C91119712966C9029
:102AD000129713967C901397A815B90559F56C01B8
:102AE00042E0C40ED11CCA14DB0420F1AC014A1927
:102AF0005B09DA011296159780F062827382518326
:102B00004083D9016D937C93E114F10471F0D701F6
:102B10001396FC93EE93129776CF22968C0F9D1FFF
:102B2000F90191838083F301EFCFF093AC05E0933B
:102B3000AB0569CF4816590608F42C017D01D30175
:102B40009ACFCB010E94D1137C01009749F0AE01CE
:102B5000B8010E94B315C8010E946D14870153CFBC
:102B600010E000E050CFFB01DC0102C001900D92AB
:102B700041505040D8F70895FB01DC0101900D92BF
:102B80000020E1F7089510E0C8E6D0E004C0FE019F
:102B90000E94CB132196C936D107C9F7F894FFCF0D
:102BA000010000AD0580000000400014005400004A
:102BB00000010002000300050008000D0015000AD6
:102BC000001E00010002000300050008000D0015B2
:102BD000000000000015026C01A2016202D301B1E5
:102BE00001C501000000008F056205D20538055BB4
:102BF00005480539050000000070086C01D205A5E4
:102C00000343616E612064652041637563617200F6
:102C10005065206465204C696D616F0050652064CB
:102C2000652063616A6100496E697469616C697AE3
:102C30006572204C4344004F4B0070726F783A002D
:102C40002061732000756C743A003D3D434F4E4641
:102C5000494720504147453D3D00496E74657276B5
:102C6000616C6F2069727269672E00486F7261280B
:102C700073293A20004465736C696761646F00547E
:102C8000656D706F206174697661646F202020002B
:102C9000536567756E646F732873293A20004D6918
:102CA0006E75746F2873293A20004D6F646F20642D
:102CB00065206174697661722020005469706F3AF2
:102CC0002000446961004E6F6974650046756C6C44
:062CD0002D54696D650042
:00000001FF
