:100000000C9463000C948B000C948B000C948B006C
:100010000C948B000C948B000C948B000C948B0034
:100020000C948B000C948B000C948B000C948B0024
:100030000C948B000C948B000C948B000C948B0014
:100040000C94E4040C948B000C948B000C948B00A7
:100050000C948B000C948B000C948B000C948B00F4
:100060000C942E050C948B00000000002400270047
:100070002A0000000000250028002B0000000000DE
:1000800023002600290004040404040404040202DA
:100090000202020203030303030301020408102007
:1000A0004080010204081020010204081020000012
:1000B0000008000201000003040700000000000027
:1000C00000004D06960911241FBECFEFD8E0DEBF19
:1000D000CDBF22E0A0E8B1E001C01D92AC3FB20765
:1000E000E1F711E0A0E0B1E0E0EEF7E102C0059039
:1000F0000D92A038B107D9F710E0C2E6D0E004C0F5
:100100002197FE010E94EB09C136D107C9F70E9471
:100110002A070C94E30B0C940000833081F028F440
:10012000813099F08230A9F008958730A9F08830A5
:10013000C9F08430B1F4809180008F7D03C080913C
:1001400080008F7780938000089584B58F7784BD79
:10015000089584B58F7DFBCF8091B0008F77809319
:10016000B00008958091B0008F7DF9CFCF93DF93D9
:10017000282F30E0F901E255FF4F8491F901E6564E
:10018000FF4FD491F901EA57FF4FC491CC23A1F05E
:1001900081110E948D00EC2FF0E0EE0FFF1FE4585C
:1001A000FF4FA591B491EC91ED2381E090E009F42B
:1001B00080E0DF91CF91089580E090E0FACF1F9327
:1001C000CF93DF93282F30E0F901E255FF4F849160
:1001D000F901E656FF4FD491F901EA57FF4FC49158
:1001E000CC23A9F0162F81110E948D00EC2FF0E096
:1001F000EE0FFF1FEE58FF4FA591B4918FB7F89403
:10020000EC91111108C0D095DE23DC938FBFDF91F4
:10021000CF911F910895DE2BF8CF3FB7F8948091CE
:10022000480290914902A0914A02B0914B0226B532
:10023000A89B05C02F3F19F00196A11DB11D3FBF1E
:10024000BA2FA92F982F8827BC01CD01620F711DED
:10025000811D911D42E0660F771F881F991F4A95E7
:10026000D1F708958F929F92AF92BF92CF92DF9273
:10027000EF92FF924B015C010E940D016B017C012A
:100280000E940D016C197D098E099F09683E73401B
:1002900081059105A8F321E0821A9108A108B1080F
:1002A00088EEC80E83E0D81EE11CF11C8114910475
:1002B000A104B10429F7FF90EF90DF90CF90BF9099
:1002C000AF909F908F90089508950895AF92BF9238
:1002D000CF92DF92EF92FF920F931F93CF93DF9312
:1002E0006C017B018B01040F151FEB015E01AE1841
:1002F000BF08C017D10759F06991D601ED91FC9163
:100300000190F081E02DC6010995892B79F7C5018F
:10031000DF91CF911F910F91FF90EF90DF90CF90E1
:10032000BF90AF900895FC01448155816081718137
:1003300088E592E00C94660108952091C101260F92
:100340003327331F21323105ECF420910A02FC01DE
:1003500090E080E0243069F082E00895A091C1012E
:100360002191AC014F555E4FA40FB52FB11D2C93B9
:100370000196861798F38091C101680F6093C101BF
:1003800080E0089581E0089510920A0281E0809350
:1003900009021092E40161E082E10E94DF0061E065
:1003A00083E10E94DF00E9EBF0E080818E7F8083B3
:1003B00080818D7F808388E48093B80085E480937A
:1003C000BC000895CF93DF9391E09093A001882320
:1003D000B9F0C091B800D091BA008091BC008A7B7E
:1003E0008093BC0060E082E10E94DF0060E083E176
:1003F0000E94DF000E94C401D093BA00C093B800ED
:10040000DF91CF9108950895E091390280913802EB
:10041000E81730F4F0E0E058FE4F808190E0089556
:100420008FEF9FEF089590913902809138022FEF5E
:100430003FEF981748F4E92FF0E0E058FE4F208195
:1004400030E09F5F90933902C9010895809138028E
:1004500090913902891B990B0895CF92DF92EF9208
:10046000FF920F931F93CF93DF937C01CB018A01FF
:1004700020911002222389F0EB016B01C40ED51EDE
:10048000CC15DD0569F06991D701ED91FC910190E2
:10049000F081E02DC7010995F3CF642F0E949D01E3
:1004A000C801DF91CF911F910F91FF90EF90DF90E6
:1004B000CF900895CF93DF931F92CDB7DEB76983B6
:1004C000209110022223F9F020913602203258F0B8
:1004D00021E030E0FC013383228390E080E00F9044
:1004E000DF91CF91089580913702E82FF0E0EF5E21
:1004F000FD4F998190838F5F8093370280933602FE
:1005000081E090E0ECCF61E0CE0101960E949D0178
:10051000F7CFCF92DF92EF92FF920F931F93CF937B
:10052000DF93FC01C48121E020931002C0933102CB
:1005300010923702109236028385682B8CE492E089
:100540000E945A02D0913602D13208F092C00E9425
:100550000D016B017C0180910A02811165C082E06E
:1005600080930A0281E0809309028FEF8093080252
:1005700010920702D0930602A1E1B2E0E6EEF1E0AC
:1005800080E0D81385C01092E5018091E501CC0F81
:10059000C82BC093E5018091E401813009F07CC053
:1005A0001092E4010E940D016B017C018091E50134
:1005B0008093BB0080910C0290910D02A0910E02DD
:1005C000B0910F02892B8A2B8B2B99F00E940D0181
:1005D00000910C0210910D0220910E0230910F0239
:1005E0006C197D098E099F09061717072807390717
:1005F000E0F18091BC0083FDD9CF85EC8093BC00F5
:100600000E940D016B017C0180910A02823009F485
:1006100045C0809108028F3F61F1809108028032CD
:1006200041F18091080225C080910C0290910D0249
:10063000A0910E02B0910F02892B8A2B8B2B09F40B
:100640008ACF0E940D0100910C0210910D022091A1
:100650000E0230910F026C197D098E099F09061751
:1006600017072807390708F076CF80910B020E9400
:10067000E201109237021092360210921002DF91BE
:10068000CF911F910F91FF90EF90DF90CF90089541
:100690009D9191938F5F75CF85EEB0CF80910C02C5
:1006A00090910D02A0910E02B0910F02892B8A2B1E
:1006B0008B2B09F4A9CF0E940D0100910C0210911F
:1006C0000D0220910E0230910F026C197D098E09E6
:1006D0009F09061717072807390708F095CFC5CFD8
:1006E00090E080E008951F93CF93DF93EC011E818B
:1006F000111119C088810E94B600892B51F489819B
:10070000811107C081E08983812FDF91CF911F91F3
:10071000089588810E94B600892BB1F319811123B5
:1007200099F31982F1CF198210E0EECFCF93DF93C6
:10073000DC016C9311961C92119770E0FB01E65658
:10074000FF4F94916A577F4FFB0124912223C9F0F8
:1007500030E0220F331FF901E859FF4F45915491C2
:10076000F901EE58FF4FC591D4912FB7F894FA01D3
:100770003081892F809583238083E8819E2B988305
:100780002FBF8FB7F8944091440250914502609179
:100790004602709147028FBF12964D935D936D9301
:1007A0007C931597DF91CF9108950F931F93CF936B
:1007B0008C01C62F0E9489026C2F6460C8010E94C0
:1007C00089026C2F6B7FC8010E94890283EC90E044
:1007D0000197F1F7CF911F910F9108950F931F93F8
:1007E000CF93DF938C01D62FC42F607F642B0E94A0
:1007F000D50380E1D89FB00111246C2BC801DF9193
:10080000CF911F910F910C94D503CF93DF93CDB768
:10081000DEB728970FB6F894DEBF0FBECDBF98E0C5
:10082000E7E0F1E0DE01119601900D929A95E1F773
:1008300090916002981708F48FEF90E0880F991F4D
:1008400021E030E02C0F3D1F820F931FFC016081DF
:10085000606840E088E592E028960FB6F894DEBF25
:100860000FBECDBFDF91CF910C94EE0340E061E06D
:1008700088E592E00E94EE038BE39FE10197F1F798
:10088000089541E00E94EE0381E090E00895FC01AC
:1008900001900020E9F73197AF01481B590BBC01CB
:1008A00088E592E00C946601FC01808191810097BB
:1008B00011F00C948D0A0895EF92FF920F931F93FD
:1008C000CF93DF93EC017B018A01888199810097A6
:1008D00029F02A813B812417350788F4B8016F5F1E
:1008E0007F4F0E94160B009791F0998388831B839A
:1008F0000A832C813D81232B11F4FC0110821D837E
:100900000C83B701888199810E94DC0B0CC088811F
:100910009981009711F00E948D0A198218821D8218
:100920001C821B821A82CE01DF91CF911F910F9101
:10093000FF90EF900895FC011182108213821282C1
:1009400015821482FB0101900020E9F73197AF0175
:10095000461B570B0C945C0485ED8093BC00809182
:100960000C0290910D02A0910E02B0910F02079619
:10097000A11DB11D23E0B695A795979587952A955A
:10098000D1F72091BC0024FD03C010920A02089503
:1009900040910C0250910D0260910E0270910F0275
:1009A000452B462B472B69F30097A105B10541F074
:1009B0002AE22A95F1F700C00197A109B109E1CF18
:1009C00080910B020C94E2011F920F920FB60F92CE
:1009D00011242F933F938F939F93AF93BF93809155
:1009E000440290914502A0914602B0914702309195
:1009F000430223E0230F2D3758F50196A11DB11DA9
:100A0000209343028093440290934502A0934602B0
:100A1000B09347028091480290914902A0914A0206
:100A2000B0914B020196A11DB11D80934802909395
:100A30004902A0934A02B0934B02BF91AF919F919C
:100A40008F913F912F910F900FBE0F901F9018958F
:100A500026E8230F0296A11DB11DD2CF1F920F923F
:100A60000FB60F9211242F933F934F935F936F9381
:100A70007F938F939F93AF93BF93EF93FF93809157
:100A8000B900887F803609F44AC0F0F5883209F44D
:100A9000A7C018F5803109F49BC0B8F4882309F485
:100AA000F9C0883009F494C0FF91EF91BF91AF91E4
:100AB0009F918F917F916F915F914F913F912F9176
:100AC0000F900FBE0F901F901895883109F488C0C1
:100AD000803251F78093080214C0803409F49DC01D
:100AE00040F48033B9F38833F9F68093080285EC3B
:100AF000B0C0803509F485C0883509F496C08834C3
:100B000099F60E94AC04D0CF883909F48CC038F52E
:100B1000883729F050F4883611F0803729F683E0C1
:100B200080930A021092E30157C0883809F47BC011
:100B3000803919F0803809F0B7CF8091E301803215
:100B400008F071C0E091E30181E08E0F8093E30132
:100B50008091BB00F0E0ED53FE4F80833DC0803BB1
:100B600039F0E0F4803A09F479C0883A09F09CCF72
:100B700084E080930A021092C2011092C101E091B8
:100B80003402F091350209958091C10181110FC0A5
:100B900081E08093C1011092A10109C0803C09F459
:100BA000A6CF883C09F4A3CF883B09F07DCFE09124
:100BB000C20181E08E0F8093C201F0E0EF55FE4F3D
:100BC00080818093BB009091C2018091C10129C0B6
:100BD0008091E5018093BB0085EC8093BC0064CFDD
:100BE0009091070280910602981758F5E09107024C
:100BF00081E08E0F80930702F0E0EA51FE4F808182
:100C0000E9CFE091070281E08E0F80930702809187
:100C1000BB00F0E0EA51FE4F808390910702809183
:100C200006029817C8F285E8D8CFE091070281E064
:100C30008E0F809307028091BB00F0E0EA51FE4FD7
:100C400080838091090281115CCF81E08093E4016F
:100C500084EA8093BC0010920A0226CF85EC809330
:100C6000BC0010920A028091E301803230F4E091DE
:100C7000E301F0E0ED53FE4F10826091E30170E07C
:100C8000E0913202F091330283EC91E009951092E9
:100C9000E3010ACF1092080234CFEF92FF920F9334
:100CA0001F93CF93DF9310924F0210924E0288EE63
:100CB00093E0A0E0B0E08093500290935102A093A3
:100CC0005202B093530283E191E090934D028093DE
:100CD0004C0262E081EF92E00E94960363E08AEEAC
:100CE00092E00E94960364E083EE92E00E949603F5
:100CF000C9E0E8ECF2E0DF018C2F1D928A95E9F75C
:100D00006DE271E0CF010E949B048DE090E0909332
:100D1000CF028093CE02E1EDF2E0DF018C2F1D9235
:100D20008A95E9F76CE371E0CF010E949B048CE0A7
:100D300090E09093D8028093D702EAEDF2E0DF01D1
:100D40001D92CA95E9F768E471E0CF010E949B0407
:100D50008BE090E09093E1028093E00210925B02BE
:100D600010925A0285E291E09093590280935802C2
:100D700087E280935C0280E18093610282E080934D
:100D8000620210926302C4E6D2E0198218821B82CA
:100D90001A821D821C8250E040E064E671E0CE01C0
:100DA0000E945C042996B2E0CE3BDB0771F71092FB
:100DB000C1021092C0021092C3021092C20210929D
:100DC000C5021092C40250E040E064E671E080EC9D
:100DD00092E00E945C04F12CE12C08EC12E0C4E6E5
:100DE000D2E0E3E0EE16F10440F5D8016D917C917C
:100DF000119761157105A1F014964D915C91CE018A
:100E00000E945C04F801868197819F838E83808590
:100E10008887FFEFEF1AFF0A075F1F4F2996E1CF80
:100E200088819981009711F00E948D0A1982188299
:100E30001D821C821B821A82E5CF82E090E0909393
:100E4000BF028093BE02DF91CF911F910F91FF905F
:100E5000EF900895789484B5826084BD84B58160F4
:100E600084BD85B5826085BD85B5816085BD809175
:100E70006E00816080936E001092810080918100ED
:100E800082608093810080918100816080938100E5
:100E9000809180008160809380008091B1008460A7
:100EA0008093B1008091B00081608093B000809108
:100EB0007A00846080937A0080917A0082608093C7
:100EC0007A0080917A00816080937A0080917A0024
:100ED000806880937A001092C100109239021092BB
:100EE000380210923702109236020E94C40184E642
:100EF00091E0909335028093340285E691E09093DF
:100F000033028093320210925D028091620282303D
:100F100018F098E090935D028093600262E370E0C5
:100F200080E090E00E9432016091630288E592E0E7
:100F30000E94890268EE73E080E090E00E94320136
:100F400060E388E592E00E94D503CBE4D6E4CE01CD
:100F50000197F1F760E388E592E00E94D5032197BD
:100F6000F1F760E388E592E00E94D50383E592E023
:100F70000197F1F760E288E592E00E94D503609165
:100F80005D02606240E088E592E00E94EE0384E04A
:100F900080935E0240E06CE088E592E00E94EE0300
:100FA0000E94360482E080935F0240E066E088E5BC
:100FB00092E00E94EE0340E062E088E592E00E9449
:100FC000EE038BE39FE10197F1F788E080936302E2
:100FD00060E088E592E00E94890280E00E940504BA
:100FE00083E591E00E94470481E00E940504C1E18D
:100FF000D0E041E050E063E671E088E592E00E94D5
:10100000660168EC70E080E090E00E943201219778
:1010100081F70E943604C4E6D2E010E000E080913F
:10102000BE029091BF02801791070CF095C0EE248C
:10103000E394C9E000E010E0D1E081EF92E00E948B
:101040007303809342028091F1020E94B600892BC3
:1010500009F0C5C08091F7028111C1C02FB7F89483
:101060008091440290914502A0914602B0914702BE
:101070002FBF4091F3025091F4026091F5027091FC
:10108000F602841B950BA60BB70B883B9B40A10572
:10109000B105B8F02FB7F8948091440290914502C1
:1010A000A0914602B09147022FBF8093F302909324
:1010B000F402A093F502B093F602D093F702FF2456
:1010C000F394F09241028AEE92E00E947303C82EDC
:1010D0008093400283EE92E00E947303D82E8093A7
:1010E0003F029091420280910001882309F499C047
:1010F00010920001992361F080913C0290913D0291
:101100008130910509F0AAC010923D0210923C0274
:101110000E94360480913C0290913D02009709F4B0
:10112000A3C0019709F08DC080E00E94050483E709
:1011300091E00E94470481E00E94050420913A0258
:1011400030913B02C29FC001C39F900D11248C5966
:101150009D4F0E94930175C08E819F819927FC014C
:10116000E656FF4F24918A579F4FFC0184918823B4
:1011700099F090E0880F991FFC01E859FF4FA59165
:10118000B491FC01EE58FF4F859194918FB7F8947C
:10119000EC91E22BEC938FBF80E00E940504CE011E
:1011A0000E94930181E00E94050442E050E065E660
:1011B00071E088E592E00E94660168E572E080E0F7
:1011C00090E00E9432010E94360464E670E080E004
:1011D00090E00E9432010F5F1F4F299620CF80912F
:1011E000F1020E94B600892BA9F42FB7F8948091E0
:1011F000440290914502A0914602B09147022FBF50
:101200008093F3029093F402A093F502B093F60258
:10121000F12C57CF8091F702882339F31092F7020F
:10122000E4CF20913E028C2D8F29892B11F4DD20F3
:1012300029F0211106C0D0933E025CCF21111092FB
:101240003E0264E670E080E090E00E943201011509
:10125000110509F4F2CE0E940000EFCE01969093A2
:101260003D0280933C0254CFCC2009F451C08091C0
:101270003A0290913B022091BE023091BF02821748
:10128000930709F040C010923B0210923A02DD2011
:1012900041F08091BE029091BF0290933B028093F7
:1012A0003A02C0903A02D0903B02FF2051F0CC9D10
:1012B000F001CD9DF00D1124E85AFD4F84898E2553
:1012C000848B80E00E940504CC9DC001CD9D900DD3
:1012D00011248C599D4F0E94930181E00E940504C6
:1012E00080913A0290913B02C89FF001C99FF00D96
:1012F0001124E85AFD4F84898823A9F08BE691E0F8
:101300000E9447049ECF019690933B0280933A023D
:10131000DD2039F280913A0290913B02009709F466
:10132000B8CF0197BACF88E691E0EACFCF93DF93A9
:1013300080EC92E00E945404CEEBD2E02997CE01DB
:101340000E94540482E0C436D807C1F78AED92E0C7
:101350000E94540481ED92E00E94540488EC92E0D3
:10136000DF91CF910C9454042F923F924F925F9251
:101370006F927F928F929F92AF92BF92CF92DF92A5
:10138000EF92FF920F931F93CF93DF93CDB7DEB70A
:10139000CA1BDB0B0FB6F894DEBF0FBECDBF09949E
:1013A0002A88398848885F846E847D848C849B84F5
:1013B000AA84B984C884DF80EE80FD800C811B8103
:1013C000AA81B981CE0FD11D0FB6F894DEBF0FBE32
:1013D000CDBFED010895EE0FFF1F0590F491E02DB4
:1013E00009940F931F93CF93DF938230910510F4EC
:1013F00082E090E0E091FA02F091FB0230E020E020
:10140000B0E0A0E0309799F42115310509F44AC005
:10141000281B390B24303105D8F58A819B81611551
:10142000710589F1FB0193838283FE0111C0408124
:1014300051810281138148175907E0F04817590775
:1014400099F4109761F012960C93129713961C93CF
:101450003296CF01DF91CF911F910F9108950093A4
:10146000FA021093FB02F4CF2115310551F0421717
:10147000530738F0A901DB019A01BD01DF01F80132
:10148000C1CFEF01F9CF9093FB028093FA02CDCF49
:10149000FE01E20FF31F81939193225031093983AA
:1014A0002883D7CF2091F8023091F902232B41F401
:1014B00020910301309104013093F9022093F80246
:1014C00020910101309102012115310541F42DB720
:1014D0003EB74091050150910601241B350BE09168
:1014E000F802F091F902E217F307A0F42E1B3F0B6C
:1014F0002817390778F0AC014E5F5F4F2417350786
:1015000048F04E0F5F1F5093F9024093F802819309
:1015100091939FCFF0E0E0E09CCFCF93DF930097D3
:10152000E9F0FC01329713821282A091FA02B09185
:10153000FB02ED0130E020E01097A1F42081318121
:10154000820F931F2091F8023091F9022817390772
:1015500009F061C0F093F902E093F802DF91CF91B6
:101560000895EA01CE17DF07E8F54A815B819E0105
:1015700041155105B1F7E901FB83EA83499159917E
:10158000C40FD51FEC17FD0761F48081918102968D
:10159000840F951FE90199838883828193819B83BE
:1015A0008A83F0E0E0E012968D919C91139700976A
:1015B000B9F52D913C911197CD010296820F931FA1
:1015C0002091F8023091F9022817390739F630973F
:1015D00051F51092FB021092FA02B093F902A09317
:1015E000F802BCCFD383C28340815181840F951F01
:1015F000C817D90761F44E5F5F4F88819981480F02
:10160000591F518340838A819B8193838283211553
:10161000310509F0B0CFF093FB02E093FA029ECFC0
:10162000FD01DC01C0CF13821282D7CFB0E0A0E071
:10163000ECE1FBE00C94B6098C01009751F4CB016E
:101640000E94F1098C01C801CDB7DEB7E0E10C942E
:10165000D209FC01E60FF71F9C0122503109E21765
:10166000F30708F49DC0D901CD91DC911197C617FD
:10167000D70798F0C530D10530F3CE01049786170F
:10168000970708F3C61BD70B2297C193D1936D938D
:101690007C93CF010E948D0AD6CF5B01AC1ABD0AA4
:1016A0004C018C0E9D1EA091FA02B091FB02512CB0
:1016B000412CF12CE12C109731F58091F80290919A
:1016C000F9028815990509F05CC04616570608F01E
:1016D00058C08091010190910201009741F48DB7AB
:1016E0009EB74091050150910601841B950BE817A8
:1016F000F90708F055C0F093F902E093F802F901F8
:1017000071836083A0CF8D919C91119712966C90FC
:10171000129713967C901397A815B90559F56C018B
:1017200042E0C40ED11CCA14DB0420F1AC014A19FA
:101730005B09DA011296159780F0628273825183F9
:101740004083D9016D937C93E114F10471F0D701CA
:101750001396FC93EE93129776CF22968C0F9D1FD3
:10176000F90191838083F301EFCFF093FB02E093C3
:10177000FA0269CF4816590608F42C017D01D301FD
:101780009ACFCB010E94F1097C01009749F0AE018C
:10179000B8010E94D30BC8010E948D0A870153CF64
:1017A00010E000E050CFFB01DC0102C001900D927F
:1017B00041505040D8F70895FB01DC0101900D9293
:1017C0000020E1F7089510E0C2E6D0E004C0FE0179
:1017D0000E94EB092196C336D107C9F7F894FFCFD1
:1017E000010000FC028000000040001400540000D2
:1017F0000000005A022D02700303022602130204A5
:1018000002000000004104660170039C0143616E08
:1018100061206465204163756361720050652064D6
:1018200065204C696D616F005065206465206361BF
:101830006A6100496E697469616C697A6572204CED
:101840004344003D004F4B004445534154495641E9
:10185000444F00434F4E4649472050414745000002
:00000001FF
