:100000000C9469000C9491000C9491000C94910054
:100010000C9491000C9491000C9491000C9491001C
:100020000C9491000C9491000C9491000C9491000C
:100030000C9491000C9491000C9491000C949100FC
:100040000C94AA090C9491000C941A0A0C94F409CB
:100050000C9491000C9491000C9491000C949100DC
:100060000C944C0A0C9491001F1C1F1E1F1E1F1F76
:100070001E1F1E00000000240027002A00000000B0
:1000800000250028002B0000000000230026002986
:100090000004040404040404040202020202020331
:1000A000030303030301020408102040800102043B
:1000B00008102001020408102000000008000201BE
:1000C00000000304070000000000000000006B0BAC
:1000D000291311241FBECFEFD8E0DEBFCDBF25E02E
:1000E000A4E3B2E001C01D92AA3AB207E1F712E020
:1000F000A0E0B1E0EAEAFBE202C005900D92A43371
:10010000B107D9F710E0C8E6D0E004C02197FE019E
:100110000E94D013C736D107C9F70E94130D0C9463
:10012000C8150C94000008950895833081F028F4D8
:10013000813099F08230A9F008958730A9F0883095
:10014000C9F08430B1F4809180008F7D03C080912C
:1001500080008F7780938000089584B58F7784BD69
:10016000089584B58F7DFBCF8091B0008F77809309
:10017000B00008958091B0008F7DF9CFCF93DF93C9
:10018000282F30E0F901E754FF4F8491F901EB5536
:10019000FF4FD491F901EF56FF4FC491CC23A1F04A
:1001A00081110E949500EC2FF0E0EE0FFF1FE95740
:1001B000FF4FA591B491EC91ED2381E090E009F41B
:1001C00080E0DF91CF91089580E090E0FACF1F9317
:1001D000CF93DF93282F30E0F901E754FF4F84914C
:1001E000F901EB55FF4FD491F901EF56FF4FC49140
:1001F000CC23A9F0162F81110E949500EC2FF0E07E
:10020000EE0FFF1FE358FF4FA591B4918FB7F894FD
:10021000EC91111108C0D095DE23DC938FBFDF91E4
:10022000CF911F910895DE2BF8CF3FB7F8948091BE
:100230008E0290918F02A0919002B091910226B50A
:10024000A89B05C02F3F19F00196A11DB11D3FBF0E
:10025000BA2FA92F982F8827BC01CD01620F711DDD
:10026000811D911D42E0660F771F881F991F4A95D7
:10027000D1F708958F929F92AF92BF92CF92DF9263
:10028000EF92FF924B015C010E9415016B017C0112
:100290000E9415016C197D098E099F09683E734003
:1002A00081059105A8F321E0821A9108A108B108FF
:1002B00088EEC80E83E0D81EE11CF11C8114910465
:1002C000A104B10429F7FF90EF90DF90CF90BF9089
:1002D000AF909F908F900895AF92BF92CF92DF9290
:1002E000EF92FF920F931F93CF93DF936C017B01EB
:1002F0008B01040F151FEB015E01AE18BF08C0177C
:10030000D10759F06991D601ED91FC910190F081EE
:10031000E02DC6010995892B79F7C501DF91CF91B1
:100320001F910F91FF90EF90DF90CF90BF90AF9013
:100330000895FC01448155816081718181EB93E0D6
:100340000C946C01FC01538D448D252F30E0842FDB
:1003500090E0821B930B541710F0CF9608950197ED
:100360000895FC01918D828D981761F0A28DAE0FDA
:10037000BF2FB11D5D968C91928D9F5F9F73928F61
:1003800090E008958FEF9FEF0895FC01918D828D8D
:10039000981731F0828DE80FF11D858D90E008955A
:1003A0008FEF9FEF0895FC01918D228D892F90E0B2
:1003B000805C9F4F821B91098F739927089588E075
:1003C00093E00E94D30121E0892B09F420E0822FE1
:1003D000089580E090E0892B29F00E94DF018111CF
:1003E0000C9400000895FC01A48DA80FB92FB11D35
:1003F000A35ABF4F2C91848D90E001968F7399275B
:10040000848FA689B7892C93A089B1898C91837038
:1004100080648C93938D848D981306C00288F38931
:10042000E02D80818F7D80830895EF92FF920F935E
:100430001F93CF93DF93EC0181E0888F9B8D8C8D90
:1004400098131AC0E889F989808185FF15C09FB784
:10045000F894EE89FF896083E889F9898081837047
:10046000806480839FBF81E090E0DF91CF911F91F6
:100470000F91FF90EF900895F62E0B8D10E00F5F17
:100480001F4F0F731127E02E8C8D8E110CC00FB6ED
:1004900007FCFACFE889F989808185FFF5CFCE0185
:1004A0000E94F301F1CFEB8DEC0FFD2FF11DE35A0C
:1004B000FF4FF0829FB7F8940B8FEA89FB89808108
:1004C0008062CFCFCF93DF93EC01888D8823B9F082
:1004D000AA89BB89E889F9898C9185FD03C080814F
:1004E00086FD0DC00FB607FCF7CF8C9185FFF2CFCC
:1004F000808185FFEDCFCE010E94F301E9CFDF912E
:10050000CF910895DC01FB012C9130E02053384F4E
:10051000808190E08053984F2817390758F12817A9
:10052000390731F511969C9111978181981710F137
:1005300098131EC012969C91129782819817D0F042
:10054000981316C013969C9113978381981790F077
:1005500098130EC014969C9114978481981750F0AC
:10056000981306C081E015962C919581291708F003
:1005700080E0089581E00895EF92FF920F931F931A
:10058000CF93DF93EC0169813881432F50E02A81BA
:10059000822F90E0E8E6F0E021E0261730F4749135
:1005A000870F911D2F5F3196F8CF633018F03370AD
:1005B00009F401966DE671E0469F9001479F300D6A
:1005C000569F300D1124215031094D5F5F4F5695D4
:1005D000479556954795240F351F280F391FA8E1D9
:1005E000B0E00E949F132B817B018C01E20EF11C75
:1005F000011D111DA8019701ACE3B0E00E945D133D
:100600002C817B018C01E20EF11C011D111DA80142
:1006100097010E945D13AB01BC019D81892F90E081
:10062000B0E0A0E080589C4BA249B74C8A019B01E6
:10063000080F191F2A1F3B1FC901B801DF91CF9175
:100640001F910F91FF90EF9008958F929F92AF921C
:10065000BF92CF92DF92EF92FF92CF93DF93EC01A4
:100660006A017B0180E8C81A83E4D80A8DE6E80AAB
:1006700088E3F80A8CE3882E912CA12CB12CC701B9
:10068000B601A50194010E94AE136D83CA01B901A0
:10069000A50194010E94AE136C83C701B60120E14D
:1006A0003EE040E050E00E94AE13CA01B90128E1EB
:1006B00030E040E050E00E94AE136B83C701B6010A
:1006C00020E831E541E050E00E94AE13188263E972
:1006D0007EEF8881982F937041E050E011F050E058
:1006E00040E0FA01E359FE4F2E173F0740F0FB01AF
:1006F000E41BF50B2E0F3F1F8F5F8883EACF81E04D
:10070000898389818C30A0F4482F4150550BFA0120
:10071000E859FF4FE491911103C0823009F4EF5F73
:10072000F0E02E173F0720F02E1B3F0B8F5FE8CF26
:100730002F5F2A83DF91CF91FF90EF90DF90CF90D2
:10074000BF90AF909F908F9008950895209155028B
:10075000260F3327331F21323105ECF42091DE02BE
:10076000FC0190E080E0243069F082E00895A091DF
:1007700055022191AC014B5C5D4FA40FB52FB11D0B
:100780002C930196861798F380915502680F609319
:10079000550280E0089581E008951092DE0281E024
:1007A0008093DD021092B80261E082E10E94E700CE
:1007B00061E083E10E94E700E9EBF0E080818E7F59
:1007C000808380818D7F808388E48093B80085E476
:1007D0008093BC0008951092970210929602109296
:1007E000E502109207030E94CD0383E990E0909305
:1007F00095028093940284E990E090939302809311
:1008000092020895CF93DF9391E09093340288236E
:10081000B9F0C091B800D091BA008091BC008A7B39
:100820008093BC0060E082E10E94E70060E083E129
:100830000E94E7000E94CD03D093BA00C093B80095
:10084000DF91CF9108958F929F92AF92BF92CF92F6
:10085000DF92EF92FF920F931F93CF93DF93D0918C
:100860000703D13208F0D7C0182FC09106030E94A9
:1008700015016B017C018091DE0281116BC082E069
:100880008093DE021093DD028FEF8093DC021092E2
:10089000DB02D093DA02A6EEB2E0EAEBF2E080E00F
:1008A000D81391C01092B9028091B902CC0FC82B15
:1008B000C093B9028091B802813009F088C01092CB
:1008C000B8020E9415016B017C018091B9028093EE
:1008D000BB008091E0029091E102A091E202B09110
:1008E000E302892B8A2B8B2BA1F00E94150100912A
:1008F000E0021091E1022091E2023091E3026C19D2
:100900007D098E099F09061717072807390708F47C
:1009100042C08091BC0083FDD8CF85EC8093BC00A1
:100920000E9415016B017C018091DE02823009F486
:1009300050C08091DC028F3F09F46FC08091DC02CF
:10094000803209F46CC08091DC02803309F469C004
:1009500084E026C08091E0029091E102A091E20241
:10096000B091E302892B8A2B8B2B09F484CF0E9450
:1009700015018090E0029090E102A090E202B09018
:10098000E3026C197D098E099F0986169706A80651
:10099000B90608F070CF8091DF020E94020485E062
:1009A0001092E502109207031092E402DF91CF91BA
:1009B0001F910F91FF90EF90DF90CF90BF90AF907D
:1009C0009F908F9008959D9191938F5F69CF85EE51
:1009D000A5CF8091E0029091E102A091E202B09156
:1009E000E302892B8A2B8B2B09F49ECF0E941501E1
:1009F0000091E0021091E1022091E2023091E302C5
:100A00006C197D098E099F090617170728073907F2
:100A100008F08ACFC0CF81E0C3CF80E0C1CF82E0B1
:100A2000BFCF83E0BDCFCF93DF93EC018B818823D1
:100A3000A1F0888191E09093E402809306031092E4
:100A4000E5021092070381E00E94230491E08111E6
:100A500090E0892FDF91CF9108950E94EB0381E010
:100A60008B83CE010E941305982F8111E2CFF1CF25
:100A70000895E091970280919602E81730F4F0E033
:100A8000E856FD4F808190E008958FEF9FEF089525
:100A900090919702809196022FEF3FEF981748F4BC
:100AA000E92FF0E0E856FD4F208130E09F5F909302
:100AB0009702C90108958091960290919702891B2F
:100AC000990B0895CF92DF92EF92FF920F931F93AD
:100AD000CF93DF937C01CB018A012091E402222392
:100AE00089F0EB016B01C40ED51ECC15DD0569F054
:100AF0006991D701ED91FC910190F081E02DC70142
:100B00000995F3CF642F0E94A603C801DF91CF910E
:100B10001F910F91FF90EF90DF90CF900895CF93AA
:100B2000DF931F92CDB7DEB769832091E4022223C1
:100B3000F9F020910703203258F021E030E0FC0169
:100B40003383228390E080E00F90DF91CF9108956E
:100B50008091E502E82FF0E0EA51FD4F9981908302
:100B60008F5F8093E5028093070381E090E0ECCFF4
:100B700061E0CE0101960E94A603F7CFFC0124811B
:100B800031E03093E402209306031092E5021092C4
:100B900007038385682B85EA93E00E948F0581E037
:100BA0000C94230490E080E008951F93CF93DF938B
:100BB000EC011E81111119C088810E94BE00892B91
:100BC00051F48981811107C081E08983812FDF91F0
:100BD000CF911F91089588810E94BE00892BB1F3A7
:100BE0001981112399F31982F1CF198210E0EECF08
:100BF000CF93DF93DC016C9311961C92119770E0F8
:100C0000FB01EB55FF4F94916F567F4FFB012491F1
:100C10002223C9F030E0220F331FF901ED58FF4FB6
:100C200045915491F901E358FF4FC591D4912FB7E5
:100C3000F894FA013081892F809583238083E8819D
:100C40009E2B98832FBF8FB7F89440918A025091C2
:100C50008B0260918C0270918D028FBF12964D9322
:100C60005D936D937C931597DF91CF9108952F92AB
:100C70003F924F925F926F927F928F929F92AF922C
:100C8000BF92CF92DF92EF92FF920F931F93CF9379
:100C9000DF9300D000D000D01F92CDB7DEB78C011B
:100CA0001982A090BD03B090BE03D50114968D911A
:100CB0009C911597892B09F427C111968D919C91D0
:100CC00012972C9131E03093E402209306031092A6
:100CD000E50210920703DC01ED91FC910280F381A3
:100CE000E02D41E050E0BE016F5F7F4F0995019715
:100CF00009F00AC180E00E942304811105C1D12CB2
:100D0000C12C87E0282E312CF50184819581710159
:100D1000EC18FD088E159F0508F47C01D5018C9018
:100D20000E9415012B013C018091DE02811175C0EA
:100D30009E2CB0E2BE1510F4B0E29B2EE1E0E093F1
:100D4000DE0221E0C1018E199F09C816D90608F4F8
:100D500020E02093DD02FFEFF093DC021092DB0233
:100D60008FEF890D8093DA0281E08093B902809140
:100D7000B902880C882A8092B9028091B802813029
:100D800009F095C01092B8020E9415012B013C0198
:100D90008091B9028093BB008091E0029091E102C2
:100DA000A091E202B091E302892B8A2B8B2BA1F058
:100DB0000E9415012091E0023091E1024091E2028F
:100DC0005091E302641975098609970926173707B8
:100DD0004807590708F442C08091BC0083FDD8CF72
:100DE000A5ECA093BC000E9415012B013C01809151
:100DF000DE02813009F45FC08091DB02891510F4B6
:100E00009090DB02AAEBB2E0E8E9F2E080E089151D
:100E100051F19D9191938F5FFACF8091E002909173
:100E2000E102A091E202B091E302892B8A2B8B2B85
:100E300009F47ACF0E9415012091E0023091E1027D
:100E40004091E2025091E3026419750986099709FD
:100E5000261737074807590708F066CF8091DF0249
:100E60000E940204912C10929702909296029E1476
:100E70001F0409F049C088248394912C8C0E9D1E78
:100E80008C0C9D1C3401C401861997098E159F0591
:100E9000A0F5F50181819281DC01ED91FC91028444
:100EA000F385E02D0995F40181934F01ECCFB5EE68
:100EB000B093BC0098CF8091E0029091E102A091A4
:100EC000E202B091E302892B8A2B8B2B09F48FCF9E
:100ED0000E9415012091E0023091E1024091E2026E
:100EE0005091E30264197509860997092617370797
:100EF0004807590708F07BCFB1CFCE0CDF1CF7E0D5
:100F0000CF16D10408F400CFE981EF77FA81FB8096
:100F10005D814E814F778F81282F30E094E03595A9
:100F200027959A95E1F7922F990F990F291B220F78
:100F3000280FD8012C93842F90E024E09595879575
:100F40002A95E1F7982F990F990F891B880F840F25
:100F500011968C931197652F70E034E07595679525
:100F60003A95E1F7862F880F880F681B660F650F8B
:100F700012966C9312974F2D50E064E0559547956B
:100F80006A95E1F7842F880F880F481B440F4F0D97
:100F900013964C9313972F2F30E074E035952795D7
:100FA0007A95E1F7822F880F880F281B220F2F0FC9
:100FB00014962C9314978E2F90E0F4E095958795D6
:100FC000FA95E1F7982F990F990F891B880F8E0FCB
:100FD00015968C93C80127960FB6F894DEBF0FBE06
:100FE000CDBFDF91CF911F910F91FF90EF90DF90D8
:100FF000CF90BF90AF909F908F907F906F905F90B9
:101000004F903F902F9008950F931F93CF938C0193
:10101000C62F0E94BE056C2F6460C8010E94BE05E9
:101020006C2F6B7FC8010E94BE0583EC90E0019796
:10103000F1F7CF911F910F9108950F931F93CF93C5
:10104000DF938C01D62FC42F607F642B0E9404088D
:1010500080E1D89FB00111246C2BC801DF91CF91A2
:101060001F910F910C94040840E061E081EB93E044
:101070000E941D088BE39FE10197F1F70895CF933C
:10108000DF93CDB7DEB728970FB6F894DEBF0FBE5B
:10109000CDBF98E0E7E0F1E0DE01119601900D92FE
:1010A0009A95E1F79091B903981708F48FEF90E0C3
:1010B000880F991F21E030E02C0F3D1F820F931FF6
:1010C000FC016081606840E081EB93E028960FB6F8
:1010D000F894DEBF0FBECDBFDF91CF910C941D08F9
:1010E00041E00E941D0881E090E008958F929F9258
:1010F000AF92BF920F931F93CF93DF93CDB7DEB71D
:10110000A1970FB6F894DEBF0FBECDBF19A2423033
:1011100008F44AE08E010F5D1F4F842E912CB12CF4
:10112000A12CA50194010E94AE13E62FB901CA01BA
:10113000EA3044F5E05DD801EE938D01232B242B9A
:10114000252B79F790E080E0109769F0FD01019080
:101150000020E9F73197AF014A1B5B0BBD0181EB22
:1011600093E00E946C01A1960FB6F894DEBF0FBE0B
:10117000CDBFDF91CF911F910F91BF90AF909F9006
:101180008F900895E95CD7CFCF92DF92EF92FF92D4
:101190006C01990FEE08FF08F7FE16C041E06DE202
:1011A00081EB93E00E941D0866277727CB016C191D
:1011B0007D098E099F094AE00E9476080196FF90FA
:1011C000EF90DF90CF9008954AE0C701B601FF90FD
:1011D000EF90DF90CF900C947608682F70E090E04D
:1011E00080E04AE00C947608FC0101900020E9F7C9
:1011F0003197AF01481B590BBC0181EB93E00C9474
:101200006C01FC0180819181009711F00C947214A3
:101210000895EF92FF920F931F93CF93DF93EC010A
:101220007B018A0188819981009729F02A813B817D
:101230002417350788F4B8016F5F7F4F0E94FB14B5
:10124000009791F0998388831B830A832C813D81C9
:10125000232B11F4FC0110821D830C83B7018881BC
:1012600099810E94C1150CC088819981009711F065
:101270000E947214198218821D821C821B821A829B
:10128000CE01DF91CF911F910F91FF90EF900895C4
:10129000FC01118210821382128215821482FB01DA
:1012A00001900020E9F73197AF01461B570B0C94D2
:1012B000090985ED8093BC008091E0029091E102E4
:1012C000A091E202B091E3020796A11DB11D23E0B7
:1012D000B695A795979587952A95D1F72091BC004B
:1012E00024FD03C01092DE0208954091E002509167
:1012F000E1026091E2027091E302452B462B472BFD
:1013000069F30097A105B10541F02AE22A95F1F7AA
:1013100000C00197A109B109E1CF8091DF020C94CF
:101320000204FF920F931F93CF93DF93EC01F62EED
:1013300008811981C8010E944713F81621F06F2D0A
:10134000C8010E944F13CE01DF91CF911F910F91E1
:10135000FF9008951F920F920FB60F9211242F93B2
:101360003F938F939F93AF93BF9380918A02909105
:101370008B02A0918C02B0918D023091890223E002
:10138000230F2D3758F50196A11DB11D2093890219
:1013900080938A0290938B02A0938C02B0938D026B
:1013A00080918E0290918F02A0919002B091910253
:1013B0000196A11DB11D80938E0290938F02A09380
:1013C0009002B0939102BF91AF919F918F913F9105
:1013D0002F910F900FBE0F901F90189526E8230FA6
:1013E0000296A11DB11DD2CF1F920F920FB60F9280
:1013F00011242F933F934F935F936F937F938F931A
:101400009F93AF93BF93EF93FF9388E093E00E9485
:10141000F301FF91EF91BF91AF919F918F917F91D8
:101420006F915F914F913F912F910F900FBE0F9051
:101430001F9018951F920F920FB60F9211242F93A1
:101440008F939F93EF93FF93E0911803F09119030B
:101450008081E0911E03F0911F0382FD1BC09081EB
:10146000809121038F5F8F7320912203821741F0B7
:10147000E0912103F0E0E85FFC4F958F809321031A
:10148000FF91EF919F918F912F910F900FBE0F9031
:101490001F9018958081F4CF1F920F920FB60F9274
:1014A00011242F933F934F935F936F937F938F9369
:1014B0009F93AF93BF93EF93FF938091B900887F81
:1014C000803609F44AC0F0F5883209F4A7C018F54F
:1014D000803109F49BC0B8F4882309F4F9C088303E
:1014E00009F494C0FF91EF91BF91AF919F918F91BB
:1014F0007F916F915F914F913F912F910F900FBE10
:101500000F901F901895883109F488C0803251F7E8
:101510008093DC0214C0803409F49DC040F4803311
:10152000B9F38833F9F68093DC0285ECB0C08035DE
:1015300009F485C0883509F496C0883499F60E946C
:101540005909D0CF883909F48CC038F5883729F08B
:1015500050F4883611F0803729F683E08093DE025C
:101560001092770257C0883809F47BC0803919F08F
:10157000803809F0B7CF80917702803208F071C0CF
:10158000E091770281E08E0F809377028091BB001B
:10159000F0E0E95AFD4F80833DC0803B39F0E0F434
:1015A000803A09F479C0883A09F09CCF84E08093AE
:1015B000DE021092560210925502E0919402F091D0
:1015C000950209958091550281110FC081E08093A9
:1015D00055021092350209C0803C09F4A6CF883C20
:1015E00009F4A3CF883B09F07DCFE091560281E05A
:1015F0008E0F80935602F0E0EB5CFD4F808180936C
:10160000BB00909156028091550229C08091B90289
:101610008093BB0085EC8093BC0064CF9091DB028B
:101620008091DA02981758F5E091DB0281E08E0F85
:101630008093DB02F0E0E654FD4F8081E9CFE0913A
:10164000DB0281E08E0F8093DB028091BB00F0E033
:10165000E654FD4F80839091DB028091DA02981767
:10166000C8F285E8D8CFE091DB0281E08E0F80934D
:10167000DB028091BB00F0E0E654FD4F8083809157
:10168000DD0281115CCF81E08093B80284EA80930F
:10169000BC001092DE0226CF85EC8093BC00109235
:1016A000DE0280917702803230F4E0917702F0E040
:1016B000E95AFD4F10826091770270E0E09192024A
:1016C000F091930287E592E00995109277020ACF94
:1016D0001092DC0234CFAF92BF92CF92DF92EF92A2
:1016E000FF920F931F93CF93DF9310920B031092EF
:1016F0000A0388EE93E0A0E0B0E080930C0390939F
:101700000D03A0930E03B0930F0325E331E0309354
:1017100009032093080325EC30E030931503209350
:10172000140324EC30E0309317032093160320ECCD
:1017300030E0309319032093180321EC30E030930C
:101740001B0320931A0322EC30E030931D032093F7
:101750001C0326EC30E030931F0320931E031092ED
:10176000210310922203109223031092240310925B
:10177000A8031092A7038093A9039093AA03A093B0
:10178000AB03B093AC0387E491E09093A6038093FE
:10179000A50362E08FE995E00E94F80563E088E91F
:1017A00095E00E94F80564E081E995E00E94F80563
:1017B000C3E2E8E2F5E0DF018C2F1D928A95E9F79C
:1017C00061E671E0CF010E9448098DE090E09093BE
:1017D0002F0580932E0540E853E46DE678E389E316
:1017E00095E00E94250340E853E46DE678E38FE33B
:1017F00095E00E94250340E853E46DE678E385E434
:1018000095E00E942503EBE4F5E0DF018C2F1D92AB
:101810008A95E9F760E771E0CF010E9448098CE002
:1018200090E0909352058093510540E853E46DE6B3
:1018300078E38CE595E00E94250340E853E46DE6EB
:1018400078E382E695E00E94250340E853E46DE6E4
:1018500078E388E695E00E942503EEE6F5E0DF01F7
:101860001D92CA95E9F76CE771E0CF010E94480923
:101870008BE090E0909375058093740540E853E405
:101880006DE678E38FE795E00E94250340E853E496
:101890006DE678E385E895E00E94250340E853E48F
:1018A0006DE678E38BE895E00E9425031092B4037F
:1018B0001092B30389E591E09093B2038093B10352
:1018C00087E28093B50380E18093BA0382E080933E
:1018D000BB031092BC031092BE031092BD03CFEB6A
:1018E000D3E0198218821B821A821D821C8250E06A
:1018F00040E06CEE71E0CE010E94090940E853E43B
:101900006DE678E3CE0141960E94250340E853E45A
:101910006DE678E3CE0147960E94250340E853E444
:101920006DE678E3CE014D960E942503A396B5E0BF
:10193000CD31DB07B1F66CEE71E08FE195E00E94EE
:10194000480910922705D12CC12CD0E0C0E0FE013F
:10195000E85DFA4F7F01CF54DC4F10E000E08AE0F1
:10196000A82EB12CF3E0CF16D10408F04BC0D7015C
:101970006D917C91119761157105B9F114964D9196
:101980005C91CE010E960E940909F701868197812C
:101990009D8B8C8B1E8ABC8EAB8EBE8EAD8EFFEF68
:1019A000CF1ADF0AC8010B960E94471390E0988F68
:1019B0008F8BC8010C960E94471390E09A8F898FF5
:1019C000C8010D960E94471390E09E8F8D8FC8012D
:1019D0000E960E94471390E09C8F8B8F83E2E80E57
:1019E000F11CA396065F1F4FBDCF8E859F85009784
:1019F00011F00E9472141F861E861B8A1A8A198A89
:101A0000188AC3CF82E090E090931E0580931D0555
:101A1000DF91CF911F910F91FF90EF90DF90CF90CA
:101A2000BF90AF900895CF93DF93CDB7DEB72E97D9
:101A30000FB6F894DEBF0FBECDBF789484B5826038
:101A400084BD84B5816084BD85B5826085BD85B562
:101A5000816085BD80916E00816080936E001092E0
:101A6000810080918100826080938100809181005B
:101A700081608093810080918000816080938000EC
:101A80008091B10084608093B1008091B00081604A
:101A90008093B00080917A00846080937A00809176
:101AA0007A00826080937A0080917A0081608093CE
:101AB0007A0080917A00806880937A001092C10049
:101AC000E0911803F091190382E08083E091140300
:101AD000F09115031082E0911603F09117038FEC3B
:101AE000808310922003E0911C03F0911D0386E097
:101AF0008083E0911A03F0911B03808180618083D1
:101B0000E0911A03F0911B03808188608083E0914B
:101B10001A03F0911B03808180688083E0911A038F
:101B2000F0911B0380818F7D80830E94EB031092D4
:101B3000B6038091BB03823018F098E09093B6030F
:101B40008093B90362E370E080E090E00E943A0184
:101B50006091BC0381EB93E00E94BE0568EE73E0E8
:101B600080E090E00E943A0160E381EB93E00E9404
:101B70000408BBE4EB2EB6E4FB2EC7010197F1F796
:101B800060E381EB93E00E940408C7010197F1F73D
:101B900060E381EB93E00E94040883E592E0019703
:101BA000F1F760E281EB93E00E9404086091B603D4
:101BB000606240E081EB93E00E941D0884E0809326
:101BC000B70340E06CE081EB93E00E941D080E94A7
:101BD000340882E08093B80340E066E081EB93E054
:101BE0000E941D0840E062E081EB93E00E941D0826
:101BF0008BE39FE10197F1F788E08093BC0360E0FD
:101C000081EB93E00E94BE0580E00E943F0887E8D8
:101C100091E00E94F40881E00E943F0811E1E12E6A
:101C2000F12C85EB91E00E94F40864E670E080E01E
:101C300090E00E943A0121E0E21AF10891F70E9437
:101C400034088091BD039091BE03009711F00E946B
:101C5000721486E090E00E94D6137C0188E6F701BA
:101C6000808385EA93E092838183138280E290E00F
:101C700095838483F092BE03E092BD030E94EB0340
:101C800081E0F7018383C7010E94130562E370E0DE
:101C900080E090E00E943A01D12CC12CA1EBEA2E09
:101CA000A3E0FA2E80911D0590911E058C159D05CF
:101CB0000CF0A6C1FFEBEF2EF3E0FF2ED12CC12CD0
:101CC00080911D0590911E058C159D050CF0C1C1DC
:101CD000DD24D39413E2EAE02E2E8FE995E00E94F2
:101CE000D5058093880280919F050E94BE00892BB4
:101CF00009F0F2C18091A5058111EEC12FB7F894CA
:101D000080918A0290918B02A0918C02B0918D02F9
:101D10002FBF4091A1055091A2056091A30570913C
:101D2000A405841B950BA60BB70B883E9340A10519
:101D3000B105B0F02FB7F89480918A0290918B0290
:101D4000A0918C02B0918D022FBF8093A10590933A
:101D5000A205A093A305B093A405D092A50501E028
:101D60000093870288E995E00E94D505482E80936C
:101D7000860281E995E00E94D505C82E80938502F0
:101D80005090880280910001882309F4C7C1109205
:101D90000001002309F484C08091820290918302A3
:101DA000109227058130910509F0EDC11092830250
:101DB00010928202A0907E02B0907F021A9D3001A4
:101DC0001B9D700C11247E866D86C3018F549C4F21
:101DD0007C01FC013788CE0101960E943706CE01B6
:101DE00001960E94BC02232D330C330B440B550B80
:101DF00039014A01660E771E881E991EB401A3019F
:101E0000CE0107960E942503AD85BE85A053BC4F29
:101E100086E0FE01379601900D928A95E1F7F70171
:101E20006789FFEFAF1ABF0A2A9C40012B9C900CD8
:101E30001124C40101969A838983CE0101960E94E0
:101E40009109F701618DC40102969A838983CE01BD
:101E500001960E949109F701658DC40103969A834A
:101E60008983CE0101960E949109F701638DF4E008
:101E70008F0E911C9A828982CE0101960E9491094F
:101E800010927D0210927C021092810210928002C8
:101E900010927B0210927A021092790210927802CC
:101EA0000E9434088091820290918302009709F485
:101EB00070C1019709F042C1442009F422C2809107
:101EC0007802909179028230910509F015C2109242
:101ED000790210927802CC2039F052E0652E712CF4
:101EE000709279026092780280912705811130C04A
:101EF00045E0E42EF12C0E94340864E670E080E0B6
:101F000090E00E943A0180E00E943F0887EA91E059
:101F10000E94F40881E00E943F0820917E023091E7
:101F20007F02129FC001139F900D112481549C4F7A
:101F30000E9499016CE271E080E090E00E943A0119
:101F400021E0E21AF108B9F6D09227050E94340880
:101F500080917802909179028130910509F4FEC157
:101F60008230910509F462C2892B09F0E7C055203F
:101F7000C9F080917C0290917D0220917E02309187
:101F80007F02873091050CF4CCC110927D02109233
:101F90007C02129FF001139FF00D1124EF54FC4FAF
:101FA000108E178A80E00E943F0887EB91E00E9424
:101FB000F40881E00E943F0880917E0290917F02A8
:101FC000189FF001199FF00D1124EF54FC4F8789E1
:101FD000908D892B09F4BDC188EC91E00E94F40832
:101FE00080917E0290917F02189FF001199FF00D61
:101FF0001124EF54FC4F8789908D0E94C4089EC025
:10200000F7018788CE0101960E943706CE0101961E
:102010000E94BC02082C000C9908AA08BB08AB015E
:10202000BC01480D591D6A1D7B1DCE0107960E94FB
:10203000250386E0FE013796D7015F9601900D9249
:102040008A95E1F7FFEFCF1ADF0A23E2E20EF11CD7
:1020500029CEF701868197819927FC01EB55FF4F27
:1020600024918F569F4FFC018491882399F090E032
:10207000880F991FFC01ED58FF4FA591B491FC0109
:10208000E358FF4F859194918FB7F894EC912E2BE4
:102090002C938FBF80E00E943F08C7010E949901E6
:1020A00081E00E943F0887E991E00E94F40864E61D
:1020B00070E080E090E00E943A010E94340864E6FB
:1020C00070E080E090E00E943A01FFEFCF1ADF0A53
:1020D00023E2E20EF11CF4CD80919F050E94BE0028
:1020E000892BA9F42FB7F89480918A0290918B02E2
:1020F000A0918C02B0918D022FBF8093A105909387
:10210000A205A093A305B093A40500E029CE809179
:10211000A505882339F31092A505E4CF9091840298
:10212000842D802B852911F4CC2029F0911106C033
:10213000D09284022ECE91111092840261EBE62E91
:1021400063E0F62E5701912C812C80911D05909112
:102150001E05881599050CF4D5C1CE0101960E9483
:102160003706B501615E7F4FCE0101960E94820263
:10217000811102C0F501D68AFFEF8F1A9F0A23E270
:10218000A20EB11CE2CF019690938302809382024B
:1021900087CE442009F470C080917E0290917F0226
:1021A00020911D0530911E058217930709F05FC02D
:1021B00010927F0210927E02CC2041F080911D058A
:1021C00090911E0590937F0280937E0280E00E9492
:1021D0003F0820917E0230917F02129FC001139F21
:1021E000900D112481549C4F0E94990181E00E941E
:1021F0003F08CE0101960E9437068E8180FF48C0BD
:102200008AE991E00E94F40880917E0290917F0219
:10221000189FF001199FF00D1124E053FC4F8381AA
:102220000E94ED0880EA91E00E94F40880917E020D
:1022300090917F02189FF001199FF00D1124E05337
:10224000FC4F84810E94ED0880EA91E00E94F4082E
:1022500080917E0290917F02189FF001199FF00DEE
:102260001124E053FC4F85810E94ED0867CF019651
:1022700090937F0280937E02CC2009F4A7CF8091B7
:102280007E0290917F02009709F498CF01979ACF30
:1022900082EA91E00E94F40880917E0290917F0290
:1022A000189FF001199FF00D1124EA52FC4F838111
:1022B0000E94ED0880EA91E00E94F40880917E027D
:1022C00090917F02189FF001199FF00D1124EA529E
:1022D000FC4F84810E94ED0880EA91E00E94F4089E
:1022E00080917E0290917F02189FF001199FF00D5E
:1022F0001124EA52FC4FB7CF019690937902809354
:102300007802CC2009F4F0CD809178029091790286
:10231000009709F4E2CD01979093790280937802B7
:10232000E3CD019690937D0280937C02129FD001B1
:10233000139FB00D1124AF54BC4F880F991FFC019F
:10234000E15FFE4F8081918158969C938E935797C1
:1023500029CE82ED91E00E94F408F0CE5520D1F014
:10236000809180029091810220917E0230917F02C3
:1023700088309105ECF11092810210928002129F38
:10238000F001139FF00D1124EF54FC4F8AE090E010
:10239000948F838F80E00E943F088CED91E00E9433
:1023A000F40880917E0290917F02189FF001199F9E
:1023B000F00D1124EF54FC4F838D948D8A309105DC
:1023C00011F04E9769F581E00E943F088DEE91E093
:1023D0000E94F40880917E0290917F02189FF00184
:1023E000199FF00D1124EF54FC4F838D948D05CE71
:1023F00001969093810280938002129FD001139FD7
:10240000B00D1124AF54BC4F880F991FFC01E15E41
:10241000FE4F808191815C969C938E935B97BACF9F
:1024200081E00E943F088BEF91E0D2CF5520E9F088
:1024300080917A0290917B02823091050CF45CC00D
:1024400010927B0210927A0280917E0290917F021C
:10245000189FF001199FF00D1124EF54FC4F80914B
:102460007A0290917B02928F818F80E00E943F08D8
:1024700087E092E00E94F40881E00E943F0888E132
:1024800092E00E94F40880917E0290917F02189F52
:10249000F001199FF00D1124EF54FC4F818D928DA6
:1024A000892B21F48FE192E00E94F40880917E0252
:1024B00090917F02189FF001199FF00D1124EF54A5
:1024C000FC4F818D928D019721F483E292E00E946E
:1024D000F40880917E0290917F02189FF001199F6D
:1024E000F00D1124EF54FC4F818D928D029709F06D
:1024F00025CE89E292E02FCF019690937B028093C4
:102500007A02A2CFB12CA12C80911D0590911E05BD
:102510008A159B050CF48AC0F7018689882309F483
:102520007EC084890E94BE00892B49F5F701C38CC7
:10253000CE0101960E943706CE0101960E94BC0290
:102540002C2DCC0C330B440B550B39014A01660E74
:10255000771E881E991EB401A301CE0107960E9422
:10256000250386E0FE013796D7019B9601900D92D8
:102570008A95E1F761E0F70184890E94E700F7019D
:102580008689882309F44BC084890E94BE00892B68
:1025900009F445C0CE0101960E943706B701655D7A
:1025A0007F4FCE0101960E948202811138C0F7014F
:1025B000168ACE0101960E94370686E0FE0131960A
:1025C000D701959601900D928A95E1F7F701C7889A
:1025D000CE0101960E943706CE0101960E94BC02F0
:1025E0002C2DCC0C330B440B550B39014A01660ED4
:1025F000771E881E991EB401A301CE0107960E9482
:10260000250386E0FE013796D7015F9601900D9273
:102610008A95E1F760E0F70184890E94E700FFEF07
:10262000AF1ABF0A23E2E20EF11C6ECF64E070E045
:1026300080E090E00E943A0180E090E0892B09F46C
:102640004CCB0E94DF01882309F447CB0E94000095
:1026500044CBCF93DF938FE195E00E940109CDE158
:10266000D5E0A397CE010E94010983E0CF3BD807B4
:10267000C1F78EE695E00E9401098BE495E00E9487
:10268000010988E295E0DF91CF910C940109F99955
:10269000FECF92BD81BDF89A992780B50895262F67
:1026A000F999FECF1FBA92BD81BD20BD0FB6F89437
:1026B000FA9AF99A0FBE019608950E949F13A59F5A
:1026C000900DB49F900DA49F800D911D112408952D
:1026D0002F923F924F925F926F927F928F929F9232
:1026E000AF92BF92CF92DF92EF92FF920F931F9320
:1026F000CF93DF93CDB7DEB7CA1BDB0B0FB6F894D1
:10270000DEBF0FBECDBF09942A88398848885F8410
:102710006E847D848C849B84AA84B984C884DF8081
:10272000EE80FD800C811B81AA81B981CE0FD11D65
:102730000FB6F894DEBF0FBECDBFED010895A29F86
:10274000B001B39FC001A39F700D811D1124911D85
:10275000B29F700D811D1124911D0895A1E21A2EC2
:10276000AA1BBB1BFD010DC0AA1FBB1FEE1FFF1F35
:10277000A217B307E407F50720F0A21BB30BE40B85
:10278000F50B661F771F881F991F1A9469F76095CC
:102790007095809590959B01AC01BD01CF01089586
:1027A000EE0FFF1F0590F491E02D09940F931F93F6
:1027B000CF93DF938230910510F482E090E0E091B6
:1027C000A805F091A90530E020E0B0E0A0E0309746
:1027D00099F42115310509F44AC0281B390B24301E
:1027E0003105D8F58A819B816115710589F1FB015D
:1027F00093838283FE0111C0408151810281138144
:1028000048175907E0F04817590799F4109761F0F5
:1028100012960C93129713961C933296CF01DF9168
:10282000CF911F910F9108950093A8051093A905CA
:10283000F4CF2115310551F04217530738F0A901A3
:10284000DB019A01BD01DF01F801C1CFEF01F9CF32
:102850009093A9058093A805CDCFFE01E20FF31F49
:10286000819391932250310939832883D7CF2091C6
:10287000A6053091A705232B41F420910301309147
:1028800004013093A7052093A60520910101309102
:1028900002012115310541F42DB73EB740910501E4
:1028A00050910601241B350BE091A605F091A70578
:1028B000E217F307A0F42E1B3F0B2817390778F017
:1028C000AC014E5F5F4F2417350748F04E0F5F1F76
:1028D0005093A7054093A605819391939FCFF0E075
:1028E000E0E09CCFCF93DF930097E9F0FC013297B3
:1028F00013821282A091A805B091A905ED0130E0E4
:1029000020E01097A1F420813181820F931F209144
:10291000A6053091A7052817390709F061C0F09383
:10292000A705E093A605DF91CF910895EA01CE17A0
:10293000DF07E8F54A815B819E0141155105B1F73A
:10294000E901FB83EA8349915991C40FD51FEC1724
:10295000FD0761F4808191810296840F951FE90142
:1029600099838883828193819B838A83F0E0E0E06E
:1029700012968D919C9113970097B9F52D913C91EA
:102980001197CD010296820F931F2091A6053091D9
:10299000A7052817390739F6309751F51092A90580
:1029A0001092A805B093A705A093A605BCCFD3832A
:1029B000C28340815181840F951FC817D90761F4E4
:1029C0004E5F5F4F88819981480F591F5183408323
:1029D0008A819B81938382832115310509F0B0CFD1
:1029E000F093A905E093A8059ECFFD01DC01C0CFBF
:1029F00013821282D7CFB0E0A0E0E1E0F5E10C94C1
:102A00006A138C01009751F4CB010E94D6138C01FC
:102A1000C801CDB7DEB7E0E10C948613FC01E60FE8
:102A2000F71F9C0122503109E217F30708F49DC0FB
:102A3000D901CD91DC911197C617D70798F0C53011
:102A4000D10530F3CE0104978617970708F3C61B0C
:102A5000D70B2297C193D1936D937C93CF010E94A2
:102A60007214D6CF5B01AC1ABD0A4C018C0E9D1EB0
:102A7000A091A805B091A905512C412CF12CE12C75
:102A8000109731F58091A6059091A70588159905B5
:102A900009F05CC04616570608F058C08091010145
:102AA00090910201009741F48DB79EB740910501C6
:102AB00050910601841B950BE817F90708F055C0E3
:102AC000F093A705E093A605F90171836083A0CF79
:102AD0008D919C91119712966C90129713967C9001
:102AE0001397A815B90559F56C0142E0C40ED11C25
:102AF000CA14DB0420F1AC014A195B09DA01129611
:102B0000159780F06282738251834083D9016D935F
:102B10007C93E114F10471F0D7011396FC93EE93CA
:102B2000129776CF22968C0F9D1FF9019183808397
:102B3000F301EFCFF093A905E093A80569CF4816FC
:102B4000590608F42C017D01D3019ACFCB010E94D4
:102B5000D6137C01009749F0AE01B8010E94B81568
:102B6000C8010E947214870153CF10E000E050CFDB
:102B7000FB01DC0102C001900D9241505040D8F79A
:102B80000895FB01DC0101900D920020E1F708950A
:102B900010E0C8E6D0E004C0FE010E94D0132196E8
:0A2BA000C936D107C9F7F894FFCF3A
:102BAA00010000AA05800000004000140054000043
:102BBA0000010002000300050008000D0015000ACC
:102BCA00001E00010002000300050008000D0015A8
:102BDA00000000000015026C01A2016202D301B1DB
:102BEA0001C501000000008F056205D20538055BAA
:102BFA0005480539050000000070086C01D205A5DA
:102C0A000343616E612064652041637563617200EC
:102C1A005065206465204C696D616F0050652064C1
:102C2A00652063616A6100496E697469616C697AD9
:102C3A006572204C4344004F4B0070726F783A0023
:102C4A002D00756C743A003D3D434F4E464947206E
:102C5A00504147453D3D00496E74657276616C6F1F
:102C6A002069727269672E00486F72612873293A67
:102C7A0020004465736C696761646F0054656D7008
:102C8A006F206174697661646F2020200053656744
:102C9A00756E646F732873293A20004D696E7574D6
:102CAA006F2873293A20004D6F646F206465206194
:102CBA0074697661722020005469706F3A2000446A
:102CCA006961004E6F6974650046756C6C2D5469B4
:042CDA006D65000024
:00000001FF
